:10000000A2EF27F00000000000EF00F00000000069
:0A0010000000000000000000F3D71C
:08001C000AAE029E000E120064
:100024000B840BAE1DEF00F0010E036E026A016A31
:0A003400006A0A360232FF0E1200C5
:0E003E00026A016A006A086A036A000E120074
:10004C000B820BAE30EF00F00368026801680068A9
:08005C000A360232FF0E120009
:100064000CB074EF00F00CA21AEF01F00E6A000E4F
:1000740002648BEF00F0F00E0214D8A456EF00F0E7
:10008400023A01380F0B02260138F00B016E0038DA
:100094000F0B01260038F00B006E08380F0B0026FA
:1000A4000838F00B086E0E84D89002BE6FEF00F093
:1000B40008360036013602360E2A02BE6FEF00F013
:1000C40008360036013602360E2A02BE6FEF00F003
:1000D40008360036013602360E2A0E50036410EF3D
:1000E40001F0035E0BBC08AE15EF01F0D880800E62
:1000F40008640030000E002201220222D8A015EF6D
:1001040001F0023201320032034A1AEF01F015EF16
:1001140001F001C002F000C001F008C000F0086A5C
:10012400000E0E860264C2EF00F0F00E0214D8A492
:10013400AAEF00F0023A01380F0B02260138F00B47
:10014400016E00380F0B01260038F00B006E0E8490
:10015400D89002BE6FEF00F00036013602360E2A48
:1001640002BE6FEF00F00036013602360E2A02BEE0
:100174006FEF00F00036013602360E2A6FEF00F002
:1001840001C002F000C001F0006A000E0E960E8855
:100194000264EFEF00F0F00E0214D8A4DAEF00F0DE
:1001A400023A01380F0B02260138F00B016E0E845F
:1001B400D89002BE6FEF00F0013602360E2A02BE5E
:1001C4006FEF00F0013602360E2A02BE6FEF00F028
:1001D400013602360E2A6FEF00F001C002F0016A08
:1001E400000E0E8602641FEF01F0F00E0214D8A474
:1001F400FEEF00F0023A0E84D89002BE6FEF00F0DA
:1002040002360E2A02BE6FEF00F002360E2A02BE3C
:100214006FEF00F002360E2A6FEF00F0010E0C6E45
:10022400FFDE22EF01F0020E0C6EF6DE22EF01F08B
:10023400040E0C6E09DF22EF01F0080E0C6EFDDED9
:020244001200A6
:100246000D6A086A0050D8B4000C04180A6E0ABE7B
:100256000D1E0B6A04AE02D0041E042A00AE02D0A4
:10026600001E002A005004100A6E0ABE1FD0045059
:10027600085E003600340836045008260036060E9E
:100286000C6E00340836045000B0085E00A0082644
:1002960000360C2EF6D700A008260BB015D00DAEF2
:1002A600000C001E002A081E082A000C04AE09D005
:1002B60000BE04D00050086E006AF1D7006A002A1A
:1002C600000C001E0B2AD3D7082A0450085CD8A4B9
:0E02D600E6D7086A002A00AEE2D7FF0C12003D
:1002E4000134083609360450085E0550D8A0053C90
:1002F400095E003601360F0E0C6E013408360936DD
:10030400045000A006D0085E0550D8A0053C095E44
:1003140005D008260550D8B0053C0926003601361C
:100324000C2EEBD700B006D0045008260550D8B0E8
:08033400053C0926000012003F
:10033C00086A080E0C6E003408360450085ED8B0FB
:0E034C0002D00826D89000360C2EF5D71200ED
:10035A00086A096A000E0762036432EF02F002506B
:10036A0006180A6E075003267E0ED8A0C3EF01F0C6
:10037A00035ED8B036EF02F0C7EF01F0035ED8A0F3
:10038A003AEF02F0028E068E02C00EF001C00BF0A8
:10039A0000C00DF000500402F4CF0CF00150050229
:1003AA00F4CF00F0F3CF08F00402F3500C26F45017
:1003BA000822000E00220D500502F3500C26F450BC
:1003CA000822000E002202500402F3500826F450BC
:1003DA00002202500502016A000E0122F350002693
:1003EA00F45001220D500602F3500826F450002260
:1003FA00026A000E012202220B500602F350002666
:10040A00F4500122000E02220E500602F350012679
:10041A00F450022202BE1AEF02F008360036013604
:10042A0002360306D8B43AEF02F02DEF02F0D88074
:10043A00800E08640030000E002201220222D8A099
:10044A002DEF02F0023201320032034A36EF02F097
:10045A000AAE029E000E3CEF02F0010EEBDD3CEF0D
:10046A0002F0020EEEDD3CEF02F0040ED6DD1200C1
:10047A00025006180E6E086A096A0B6A035007646E
:10048A0030EF03F006500A6E068E028E03500B6E92
:10049A000750036E000E0B6480EF02F00B50075EEC
:1004AA00D8B421EF03F0070E0764EFEF02F0075EFE
:1004BA0000C008F001C000F002C001F0026A074E55
:1004CA0021EF03F00764C4EF02F0075E00C008F0F2
:1004DA0001C000F0016A074E21EF03F00764A2EFA2
:1004EA0002F0075E00C008F0006A074E21EF03F031
:1004FA00076489EF02F00AC002F005C001F004C0E7
:10050A0000F0086A4DEF04F0030E076494EF02F05E
:10051A00075E08380F0B086E074E21EF03F0D890DC
:10052A000832074E21EF03F0D8900832074E21EF28
:10053A0003F0D890083221EF03F0030E0764B3EFFB
:10054A0002F0075E08380F0B086E0038F00B082619
:10055A0000380F0B006E074E21EF03F0D8900032DF
:10056A000832074E21EF03F0D89000320832074EC6
:10057A0021EF03F0D8900032083221EF03F0030E86
:10058A000764DBEF02F0075E08380F0B086E0038CD
:10059A00F00B082600380F0B006E0138F00B00260E
:1005AA0001380F0B016E074E21EF03F0D89001328C
:1005BA0000320832074E21EF03F0D89001320032A0
:1005CA000832074E21EF03F0D89001320032083288
:1005DA0021EF03F0030E07640CEF03F0075E0838FF
:1005EA000F0B086E0038F00B082600380F0B006E50
:1005FA000138F00B002601380F0B016E0238F00BA0
:10060A00012602380F0B026E074E21EF03F0D89035
:10061A000232013200320832074E21EF03F0D8903D
:10062A000232013200320832074E21EF03F0D8902D
:10063A000232013200320832096A000E0EAE15EF9C
:10064A0004F0081E001E011E021E082A00220122B2
:10065A00022215EF04F00750D8A436EF03F04DEF4D
:10066A0004F0096A02C00AF0028E068E0750035C83
:10067A00076ED8B408EF04F0070E0764D6EF03F04C
:10068A00075E0450096E0550046E0650056E066A30
:10069A00074E08EF04F0070E0764ABEF03F0075E9E
:1006AA000450096E0550046E056A074E08EF04F0FF
:1006BA00070E076489EF03F0075E0450096E046AA7
:1006CA00074E08EF04F0070E076470EF03F00AC044
:1006DA0002F04DEF04F0030E07647BEF03F0075EB0
:1006EA0009380F0B096E074E08EF04F0D89009324B
:1006FA00074E08EF04F0D8900932074E08EF04F0CD
:10070A00D890093208EF04F0030E07649AEF03F059
:10071A00075E09380F0B096E0438F00B09260438F6
:10072A000F0B046E074E08EF04F0D890043209321A
:10073A00074E08EF04F0D89004320932074E08EF4A
:10074A0004F0D8900432093208EF04F0030E07646B
:10075A00C2EF03F0075E09380F0B096E0438F00B7D
:10076A00092604380F0B046E0538F00B04260538E9
:10077A000F0B056E074E08EF04F0D89005320432CD
:10078A000932074E08EF04F0D890053204320932D4
:10079A00074E08EF04F0D89005320432093208EF08
:1007AA0004F0030E0764F3EF03F0075E09380F0B3A
:1007BA00096E0438F00B092604380F0B046E05384D
:1007CA00F00B042605380F0B056E0638F00B0526CC
:1007DA0006380F0B066E074E08EF04F0D890063263
:1007EA00053204320932074E08EF04F0D890063277
:1007FA00053204320932074E08EF04F0D890063267
:10080A00053204320932086A000E0EAE15EF04F002
:10081A00091E041E051E061E092A04220522062296
:10082A0009500826045000220550012206500222CF
:10083A000EBE2CEF04F0D8A03BEF04F002320132D6
:10084A0000320832033E3BEF04F047EF04F0D8B021
:10085A0041EF04F0000E081E001E011E021E082AA7
:10086A000022012202220A7E41EF04F0010E0C6EE0
:10087A0032EC00F04FEF04F0020E0C6E32EC00F096
:10088A004FEF04F0040E0C6E26EC00F04FEF04F06C
:06089A00000E0C6E1200BE
:1008A0000B800BAE5CEF04F0026A0AAEFF0E026E24
:0C08B000016E006E0A360232FF0E1200CC
:0808BC000B6A0B86FF0E12000F
:1008C40001014DA55DD04DA312D04DA103D02D0E35
:1008D400036E02D02B0E036E93C1E1FF94C1E2FFBD
:1008E40003C0E6FF934B942B5E4A5F2A34D04DA19C
:1008F4000BD093C1E1FF94C1E2FF200EE66E934B4F
:10090400942B5E4A5F2A27D0C00E4D15016E4E51BE
:10091400080B026E0250080A02E1800E01181BE166
:1009240093C1E1FF94C1E2FF300EE66E934B942B2A
:100934005E4A5F2A4DAB03D0580E046E02D0780E87
:10094400046E93C1E1FF94C1E2FF04C0E6FF934B40
:10095400942B5E4A5F2A3A513B1111E093C1E1FFA7
:1009640094C1E2FF300EE66E934B942B5E4A5F2AED
:10097400010E3A5F000E3B5B3A513B11EFE174D03C
:100984003A513B1113E04DB711D093C1E1FF94C12B
:10099400E2FF200EE66E934B942B5E4A5F2A010E13
:1009A4003A5F000E3B5B3A513B11EFE14DA312D08D
:1009B4004DA103D02D0E056E02D02B0E056E93C1F2
:1009C400E1FF94C1E2FF05C0E6FF934B942B5E4A1E
:1009D4005F2A0CD04DA10AD093C1E1FF94C1E2FF7C
:1009E400200EE66E934B942B5E4A5F2AC00E4D1583
:1009F400016E4E51080B026E0250080A02E1400ECD
:100A040001180BE193C1E1FF94C1E2FF300EE66EE1
:100A1400934B942B5E4A5F2A27D0C00E4D15016E6E
:100A24004E51080B026E0250080A02E1800E0118B2
:100A34001BE193C1E1FF94C1E2FF300EE66E934BDC
:100A4400942B5E4A5F2A4DAB03D0580E066E02D03B
:100A5400780E066E93C1E1FF94C1E2FF06C0E6FF83
:100A6400934B942B5E4A5F2A800E006E800E3919D8
:100A7400005C02E138514C5D0BE293C1E1FF94C18B
:100A8400E2FF300EE66E934B942B5E4A5F2AECD75E
:0A0A940093C100F094C101F01200BC
:100A9E000B6A0C6A0A6A086A0350D8B4D7EF05F0DD
:100AAE00028E9E0E035E03BE62EF05F0D8B462EFB7
:100ABE0005F0C7EF05F0036C080E035CD8A094EFA9
:100ACE0005F0036E083600C008F001C000F002C049
:100ADE0001F0026A080E035CD8A094EF05F0036ED5
:100AEE00083600C008F001C000F0016A080E035C71
:100AFE00D8A094EF05F0036E083600C008F0006A27
:100B0E00080E035CD8A094EF05F0036E0836086A51
:100B1E000350D8A4D890A0EF05F00350D8B4A0EF9E
:100B2E0005F0D8900232013200320832032E98EFCF
:100B3E0005F00BBC08A0B1EF05F0D8A0B1EF05F0A1
:100B4E00082AD8B4002AD8B4012AD8B4022A02BE80
:100B5E00DBEF05F00AAED7EF05F0021E011E001EF8
:100B6E00081E082AD8B4002AD8B4012AD8B4022AFA
:100B7E00D7EF05F0026A016A006A086AD7EF05F03E
:100B8E000B800BAEE0EF05F0026A0AAEE0EF05F067
:100B9E00026E016E006E086E0A360232E0EF05F04C
:100BAE00000E0C6AE1EF05F0010E0C6E72DEE1EF45
:100BBE0005F0FF0E0250036E0150026E0050016EE2
:060BCE000850006E120049
:100BD40028D001014D87010E9327000E94239523FD
:100BE4005DD001014D81010E9327000E94239523BE
:100BF40055D001014D83010E9327000E94239523B4
:100C04004DD001014E87010E9327000E94239523A6
:100C140045D001014D85010E9327000E94239523A1
:100C24003DD093C1F6FF94C1F7FF95C1F8FF0900C9
:100C3400F5CF01F001502D0ACCE093C1F6FF94C129
:100C4400F7FF95C1F8FF0900F5CF01F00150200A24
:100C5400C8E093C1F6FF94C1F7FF95C1F8FF0900FE
:100C6400F5CF01F001502B0AC4E093C1F6FF94C103
:100C7400F7FF95C1F8FF0900F5CF01F00150230AF1
:100C8400C0E093C1F6FF94C1F7FF95C1F8FF0900D6
:100C9400F5CF01F00150300ABCE001D099D7010131
:100CA4004DA301D04D914DA701D04D9593C100F0B6
:0A0CB40094C101F095C102F0120096
:100CBE00800E01019319006E800E000A005CD8B000
:100CCE006DD193510008016E01C093F1800E011891
:100CDE00006E800E6E0A005CD8A0C0D0640E046E4A
:100CEE0093C100F023EC01F0120E0024056E000EED
:100CFE0000BEFF0E066E000E062205C000F006C0F6
:100D0E0001F0000E06BEFF0E026E036E003600905E
:100D1E0001360236033600360090013602360336AF
:100D2E007B0E0024F66E500E0120F76E000E022090
:100D3E00F86E0900F5CF94F10900F5CF95F1090091
:100D4E00F5CF96F10900F5CF97F1640E046E93C1BD
:100D5E0000F023EC01F008C000F00A0E046E23EC44
:100D6E0001F0090E0024056E000E00BEFF0E066E89
:100D7E00000E062205C000F006C001F0000E06BEF1
:100D8E00FF0E026E036E00360090013602360336F9
:100D9E00003600900136023603367B0E0024F66EC6
:100DAE00500E0120F76E000E0220F86E0900F5CFEE
:100DBE0000F00900F5CF01F00900F5CF02F00900AF
:100DCE00F5CF03F094C104F095C105F096C106F07D
:100DDE0097C107F0ADEC01F000C094F101C095F1A0
:100DEE0002C096F103C097F10A0E046E93C100F093
:100DFE0023EC01F008C000F000C001F0000E00BEB0
:100E0E00FF0E026E036E046E01360190023603363B
:100E1E000436013601900236033604367B0E012469
:100E2E00F66E500E0220F76E000E0320F86E0900CB
:100E3E00F5CF00F00900F5CF01F00900F5CF02F073
:100E4E000900F5CF03F094C104F095C105F096C1E9
:100E5E0006F097C107F0ADEC01F007D2800E0A0A3A
:100E6E00006E800E9319005C71E20A0E046E93C13F
:100E7E0000F023EC01F0090E0024056E000E00BEFA
:100E8E00FF0E066E000E062205C000F006C001F031
:100E9E00000E06BEFF0E026E036E00360090013687
:100EAE0002360336003600900136023603367B0ECC
:100EBE000024F66E500E0120F76E000E0220F86E22
:100ECE000900F5CF94F10900F5CF95F10900F5CFA2
:100EDE0096F10900F5CF97F10A0E046E93C100F05A
:100EEE0023EC01F008C000F000C001F0000E00BEBF
:100EFE00FF0E026E036E046E01360190023603364B
:100F0E000436013601900236033604367B0E012478
:100F1E00F66E500E0220F76E000E0320F86E0900DA
:100F2E00F5CF00F00900F5CF01F00900F5CF02F082
:100F3E000900F5CF03F094C104F095C105F096C1F8
:100F4E0006F097C107F0ADEC01F08FD193C100F020
:100F5E00000E93BFFF0E016E026E036E0036009000
:100F6E00013602360336003600900136023603365D
:100F7E007B0E0024F66E500E0120F76E000E02203E
:100F8E00F86E0900F5CF00F00900F5CF01F0090069
:100F9E00F5CF02F00900F5CF03F067D1800E93195B
:100FAE00006E800E6E0A005CD8A0C0D0640E046E77
:100FBE0093C100F023EC01F0120E0024056E000E1A
:100FCE0000BEFF0E066E000E062205C000F006C023
:100FDE0001F0000E06BEFF0E026E036E003600908C
:100FEE0001360236033600360090013602360336DD
:100FFE00AF0E0024F66E500E0120F76E000E02208A
:10100E00F86E0900F5CF94F10900F5CF95F10900BE
:10101E00F5CF96F10900F5CF97F1640E046E93C1EA
:10102E0000F023EC01F008C000F00A0E046E23EC71
:10103E0001F0090E0024056E000E00BEFF0E066EB6
:10104E00000E062205C000F006C001F0000E06BE1E
:10105E00FF0E026E036E0036009001360236033626
:10106E0000360090013602360336AF0E0024F66EBF
:10107E00500E0120F76E000E0220F86E0900F5CF1B
:10108E0000F00900F5CF01F00900F5CF02F00900DC
:10109E00F5CF03F094C104F095C105F096C106F0AA
:1010AE0097C107F0ADEC01F000C094F101C095F1CD
:1010BE0002C096F103C097F10A0E046E93C100F0C0
:1010CE0023EC01F008C000F000C001F0000E00BEDD
:1010DE00FF0E026E036E046E013601900236033669
:1010EE00043601360190023603360436AF0E012463
:1010FE00F66E500E0220F76E000E0320F86E0900F9
:10110E00F5CF00F00900F5CF01F00900F5CF02F0A0
:10111E000900F5CF03F094C104F095C105F096C116
:10112E0006F097C107F0ADEC01F09FD0800E0A0AD1
:10113E00006E800E9319005C71E20A0E046E93C16C
:10114E0000F023EC01F0090E0024056E000E00BE27
:10115E00FF0E066E000E062205C000F006C001F05E
:10116E00000E06BEFF0E026E036E003600900136B4
:10117E000236033600360090013602360336AF0EC5
:10118E000024F66E500E0120F76E000E0220F86E4F
:10119E000900F5CF94F10900F5CF95F10900F5CFCF
:1011AE0096F10900F5CF97F10A0E046E93C100F087
:1011BE0023EC01F008C000F000C001F0000E00BEEC
:1011CE00FF0E026E036E046E013601900236033678
:1011DE00043601360190023603360436AF0E012472
:1011EE00F66E500E0220F76E000E0320F86E090008
:1011FE00F5CF00F00900F5CF01F00900F5CF02F0B0
:10120E000900F5CF03F094C104F095C105F096C125
:10121E0006F097C107F0ADEC01F027D093C100F0B6
:10122E00000E93BFFF0E016E026E036E003600902D
:10123E00013602360336003600900136023603368A
:10124E00AF0E0024F66E500E0120F76E000E022037
:10125E00F86E0900F5CF00F00900F5CF01F0090096
:0C126E00F5CF02F00900F5CF03F01200EC
:10127A000450000A12E10550000A0FE10650000A64
:10128A000CE10750000A09E1FF0E006EFF0E016E25
:10129A007F0E026EFF0E036EA8D0086A096A075015
:1012AA00D8B4E8EF09F00350D8B4EDEF09F00250D2
:1012BA0006180A6E028E068E0E6A02C008F001C077
:1012CA000CF000C00DF004500D5E0550D8A0053C8E
:1012DA000C5E0650D8A0063C085E086A0C6A0D6AC5
:1012EA00D8A07FEF09F0D8900232013200320832DA
:1012FA00010E0E6E0750035ED8A08CEF09F07E0E29
:10130A000E240326D8B0F2EF09F092EF09F07E0E10
:10131A000E240326D8A0F7EF09F0180E0B6E0D362F
:10132A000C3608360036013602360E360450005E98
:10133A000550D8A0053C015E0650D8A0063C025EC6
:10134A0006340E120EA0ADEF09F00D80B8EF09F0C9
:10135A00045000260550D8B0053C01260650D8B0E6
:10136A00062802260D900B2E94EF09F0DEEF09F005
:10137A00D8900036013602360E360450005E05500B
:10138A00D8A0053C015E0650D8A0063C025E063491
:10139A000E10010B0D26D8B00C2AD8B4082AD8A4EE
:1013AA00DEEF09F008320C320D32032AD8B4F2EF1C
:1013BA0009F00AAE089E0850026E0C50016E0D50DC
:1013CA00006EFAEF09F0010E5EEC04F0FAEF09F094
:1013DA00020E1FEC00F0FAEF09F0040E26EC00F002
:0C13EA00FAEF09F0080E12EC00F01200FF
:1013F60001019351390806E3300E935D03E3010EB4
:08140600006E01D0006A120023
:10140E000B6A0A6A096A00500402F4CF09F0F3CF9E
:10141E0008F001500502F4CF0BF0F3CF0AF00050A4
:10142E000502F3500926F4500A22E86A0B220150F5
:10143E000402F3500926F4500A22E86A0B2208C06F
:10144E0000F009C001F00AC002F00BC003F0120058
:10145E000B6A0C6A086A0350D8B4B3EF0AF002C0E4
:10146E000AF0028E9E0E035E03AEA3EF0AF0036C2B
:10147E00080E035CD8A070EF0AF0036E083600C0A9
:10148E0008F001C000F002C001F0026A080E035C11
:10149E00D8A070EF0AF0036E083600C008F001C045
:1014AE0000F0016A080E035CD8A070EF0AF0036E1C
:1014BE00083600C008F0006A080E035CD8A070EF72
:1014CE000AF0036E0836086A0350D8A4D8907CEF51
:1014DE000AF00350D8B47CEF0AF0D89002320132F1
:1014EE0000320832032E74EF0AF00BBC08A08DEF09
:1014FE000AF0D8A08DEF0AF0082AD8B4002AD8B482
:10150E00012AD8B4022A02BEB7EF0AF00AAEB3EF30
:10151E000AF0021E011E001E081E082AD8B4002A58
:10152E00D8B4012AD8B4022AB3EF0AF0026A016ACB
:10153E00006A086AB3EF0AF00B800BAEBEEF0AF03A
:10154E00026A0AAEBEEF0AF0026E016E006E086EFF
:10155E000A360232BEEF0AF00C6A000EBFEF0AF036
:10156E00010E0C6E000E50EC04F0BFEF0AF0FF0EF1
:10157E000250036E0150026E0050016E0850006E54
:02158E00120049
:101590000A6A0350D8A40A800750D8A40A820A50C5
:1015A000D8B42BEF0BF0030AD8B4E4EF0AF00AB07A
:1015B000DFEF0AF006AE29EF0BF027EF0BF002AEDB
:1015C00027EF0BF029EF0BF00250800B0A6E029E02
:1015D0000650800B069E0A18D8B4F5EF0AF00A50A0
:1015E000D8B427EF0BF029EF0BF00750035CD8B409
:1015F000FFEF0AF0D8A01BEF0BF021EF0BF0065025
:10160000025CD8B409EF0BF0D8A01BEF0BF021EF70
:101610000BF00550015CD8B413EF0BF0D8A01BEF12
:101620000BF021EF0BF00450005CD8B42BEF0BF063
:10163000D8B021EF0BF00A52D8B429EF0BF027EF06
:101640000BF00A52D8B427EF0BF029EF0BF0D8803B
:0E1650001200D8901200D880D8841200120028
:10165E000B6A0A6A096A086A0E6A0334083604506D
:10166E00085E0550D8A0053C095E0650D8A0063C81
:10167E000A5E0750D8A0073C0B5EE86AD8A0010EA0
:10168E000E5E0336070E0C6E0334083609360A3624
:10169E000B360E36045003A012D0085E0550D8A0AB
:1016AE00053C095E0650D8A0063C0A5E0750D8A03D
:1016BE00073C0B5EE86AD8A0010E0E5E11D008261C
:1016CE000550D8B0053C09260650D8B0063C0A266F
:1016DE000750D8B0073C0B26E86AD8B0010E0E268C
:1016EE0003360C2ED1D70234083609360A360B369D
:1016FE000E36045003A012D0085E0550D8A0053C4B
:10170E00095E0650D8A0063C0A5E0750D8A0073CDA
:10171E000B5EE86AD8A0010E0E5E11D008260550A9
:10172E00D8B0053C09260650D8B0063C0A2607500C
:10173E00D8B0073C0B26E86AD8B0010E0E2602364A
:10174E00070E0C6E0234083609360A360B360E3684
:10175E00045002A012D0085E0550D8A0053C095EC8
:10176E000650D8A0063C0A5E0750D8A0073C0B5E78
:10177E00E86AD8A0010E0E5E11D008260550D8B02A
:10178E00053C09260650D8B0063C0A260750D8B0AC
:10179E00073C0B26E86AD8B0010E0E2602360C2E38
:1017AE00D1D70134083609360A360B360E360450B8
:1017BE0002A012D0085E0550D8A0053C095E065066
:1017CE00D8A0063C0A5E0750D8A0073C0B5EE86A1C
:1017DE00D8A0010E0E5E11D008260550D8B0053CDB
:1017EE0009260650D8B0063C0A260750D8B0073C4A
:1017FE000B26E86AD8B0010E0E260136070E0C6EC7
:10180E000134083609360A360B360E36045001A05E
:10181E0012D0085E0550D8A0053C095E0650D8A02F
:10182E00063C0A5E0750D8A0073C0B5EE86AD8A0BB
:10183E00010E0E5E11D008260550D8B0053C0926C3
:10184E000650D8B0063C0A260750D8B0073C0B26E7
:10185E00E86AD8B0010E0E2601360C2ED1D7003410
:10186E00083609360A360B360E36045001A012D051
:10187E00085E0550D8A0053C095E0650D8A0063C6F
:10188E000A5E0750D8A0073C0B5EE86AD8A0010E8E
:10189E000E5E11D008260550D8B0053C092606501C
:1018AE00D8B0063C0A260750D8B0073C0B26E86A8B
:1018BE00D8B0010E0E260036070E0C6E0034083618
:1018CE0009360A360B360E36045000A012D0085ECA
:1018DE000550D8A0053C095E0650D8A0063C0A5E0D
:1018EE000750D8A0073C0B5EE86AD8A0010E0E5E2A
:1018FE0011D008260550D8B0053C09260650D8B0A0
:10190E00063C0A260750D8B0073C0B26E86AD8B02A
:10191E00010E0E2600360C2ED1D700B00ED004507C
:10192E0008260550D8B0053C09260650D8B0063C0E
:0C193E000A260750D8B0073C0B26120008
:10194A0003500718D8A4B9EF0CF002500618D8A40F
:10195A00B9EF0CF001500518D8A4B9EF0CF00050FB
:0E196A000418D8B4D8841200D89412001200C9
:101978000450000A08E10550000A05E1FF0E006E58
:101988007F0E016E58D00D6A096A086A015000106E
:10199800D8B4000C015005180A6E0ABE0D1E0B6A59
:1019A80005AE05D0041E051E042AD8B4052A01AECA
:1019B80005D0001E011E002AD8B4012A01500510C6
:1019C8000A6E0ABE10D072EC01F00BB020D00DAE3A
:1019D800000C001E011E002AD8B4012A081E091E88
:1019E800082AD8B4092A000C05AE0DD001BE07D0CC
:1019F8000150096E0050086E016A006AE8D7016A52
:101A0800006A002A000C011E001E0B2ADDD7082AD6
:101A1800D8B4092A0450085CD8A4D9D70550095C61
:101A2800D8A4D5D7096A086A002AD8B4012A01AE11
:081A3800CED70000FF0C1200E4
:101A40006E0E0101935DD8A0CAD0640E046E93C1DE
:101A500000F09EEC01F0120E0024056E066A000EE6
:101A6000062205C000F006C001F0000E06BEFF0E03
:101A7000026E036E003600900136023603360036E1
:101A800000900136023603367B0E0024F66E500EAF
:101A90000120F76E000E0220F86E0900F5CF00F06D
:101AA0000900F5CF01F00900F5CF02F00900F5CFEC
:101AB00003F0000E046E000E056E000E066E7E0E24
:101AC000076EADEC01F000C094F101C095F102C0C9
:101AD00096F103C097F1640E046E93C100F09EEC82
:101AE00001F008C000F00A0E046E9EEC01F0090E31
:101AF0000024056E066A000E062205C000F006C02E
:101B000001F0000E06BEFF0E026E036E003600905E
:101B100001360236033600360090013602360336AF
:101B20007B0E0024F66E500E0120F76E000E022090
:101B3000F86E0900F5CF00F00900F5CF01F00900BB
:101B4000F5CF02F00900F5CF03F094C104F095C180
:101B500005F096C106F097C107F0ADEC01F000C0AA
:101B600094F101C095F102C096F103C097F10A0EFD
:101B7000046E93C100F09EEC01F008C000F000C0BC
:101B800001F0000E026E036E046E01360190023603
:101B900003360436013601900236033604367B0ED6
:101BA0000124F66E500E0220F76E000E0320F86E30
:101BB0000900F5CF00F00900F5CF01F00900F5CFDD
:101BC00002F00900F5CF03F094C104F095C105F0CF
:101BD00096C106F097C107F0ADEC01F0B1D093517A
:101BE0000A08D8B07ED00A0E046E93C100F09EECB5
:101BF00001F0090E0024056E066A000E062205C0DB
:101C000000F006C001F0000E06BEFF0E026E036E6D
:101C10000036009001360236033600360090013659
:101C2000023603367B0E0024F66E500E0120F76E4E
:101C3000000E0220F86E0900F5CF00F00900F5CF84
:101C400001F00900F5CF02F00900F5CF03F0000E16
:101C5000046E000E056E000E066E7E0E076EADEC75
:101C600001F000C094F101C095F102C096F103C0EB
:101C700097F10A0E046E93C100F09EEC01F008C0CB
:101C800000F000C001F0000E026E036E046E01361B
:101C900001900236033604360136019002360336CF
:101CA00004367B0E0124F66E500E0220F76E000EF5
:101CB0000320F86E0900F5CF00F00900F5CF01F020
:101CC0000900F5CF02F00900F5CF03F094C104F04C
:101CD00095C105F096C106F097C107F0ADEC01F093
:101CE0002FD093C100F0000E016E026E036E00361D
:101CF0000090013602360336003600900136023677
:101D000003367B0E0024F66E500E0120F76E000E97
:101D10000220F86E0900F5CF00F00900F5CF01F0C0
:101D20000900F5CF02F00900F5CF03F0000E046EB4
:101D3000000E056E000E066E7E0E076EADEC01F015
:021D400012008F
:101D42000050086E0150006E0250016E0350026E88
:101D5200036A0B6A0C6A9E0E036E0A6A020E0C6E0E
:061D620032EC00F012005B
:081D6800067E3DEC02F01200C2
:101D7000086A096A100E0C6E0134083609360450E0
:101D8000085E0550D8A0053C095ED8B007D00450C5
:101D900008260550D8B0053C0926D89000360136F3
:061DA0000C2EEAD7120030
:101DA6005E6A5F6A01014D6B4E6B6DC100F06EC1DC
:101DB60001F06FC102F0010E6D27000E6E236F2336
:101DC60000C0F6FF01C0F7FF02C0F8FF0900F5CF1B
:101DD60000F000C04CF10052D8B4C8EF13F04C51DB
:101DE600250A0BE06BC1E1FF6CC1E2FF4CC1E6FFC7
:101DF6006B4B6C2B5E4A5F2AD8D73A6B3B6B4D6BAD
:101E06004E6B6DC193F16EC194F16FC195F1EAEC21
:101E160005F000C06DF101C06EF102C06FF100C0A7
:101E2600F6FF01C0F7FF02C0F8FF0900F5CF00F08A
:101E3600000E016E00C093F1FBEC09F0005236E093
:101E46003A6B3B6B3AC100F03BC101F00A0E046EDF
:101E5600000E056E07EC0AF06DC1F6FF6EC1F7FFC6
:101E66006FC1F8FF0900F5CF02F0025000243A6F67
:101E7600000E01203B6F300E3A5F000E3B5B010EF9
:101E86006D27000E6E236F236DC1F6FF6EC1F7FF3F
:101E96006FC1F8FF0900F5CF00F0000E016E00C01B
:101EA60093F1FBEC09F00052CDE133D06DC1F6FFA2
:101EB6006EC1F7FF6FC1F8FF0900F5CF01F00150C1
:101EC6002A0A27E170C1E9FF71C1EAFFEECF00F0EF
:101ED600EECF01F000C0E9FF01C0EAFFEECF3AF114
:101EE600EECF3BF170C1E9FF71C1EAFF020EEE24AD
:101EF600006E000EEE20016E70C1E1FF71C1E2FFBF
:101F060000C0E6FF01C0E6FF010E6D27000E6E233E
:101F16006F236DC1F6FF6EC1F7FF6FC1F8FF0900B1
:101F2600F5CF01F001502E0A70E1010E6D27000E6B
:101F36006E236F236DC1F6FF6EC1F7FF6FC1F8FF09
:101F46000900F5CF01F001502A0A28E170C1E9FF26
:101F560071C1EAFFEECF00F0EECF01F000C0E9FF5D
:101F660001C0EAFFEECF38F1EECF39F170C1E9FFDB
:101F760071C1EAFF020EEE24006E000EEE20016E25
:101F860070C1E1FF71C1E2FF00C0E6FF01C0E6FFDC
:101F9600010E6D27000E6E236F2336D0386B396B1A
:101FA6006DC1F6FF6EC1F7FF6FC1F8FF0900F5CFEF
:101FB60000F0000E016E00C093F1FBEC09F0005238
:101FC60023E038C100F039C101F00A0E046E000E9C
:101FD600056E07EC0AF06DC1F6FF6EC1F7FF6FC123
:101FE600F8FF0900F5CF02F002500024386F000E0A
:101FF6000120396F300E385F000E395B010E6D27F8
:10200600000E6E236F23CCD702D0386B396B6DC1AF
:1020160000F06EC101F06FC102F0010E6D27000ED7
:102026006E236F2300C0F6FF01C0F7FF02C0F8FF62
:102036000900F5CF4CF1EFD05EC000F05FC001F0B3
:10204600A8D34D8D17D116D14D8B4D8F13D170C19D
:10205600E9FF71C1EAFFEECF00F0EECF01F000C05C
:10206600E9FF01C0EAFFEECF72F1EECF73F170C166
:10207600E9FF71C1EAFF020EEE24006E000EEE20AB
:10208600016E70C1E1FF71C1E2FF00C0E6FF01C051
:10209600E6FF000E731902E1000E721904E1490E03
:1020A600726F000E736F746B756B74517225E96EE7
:1020B60075517321EA6EEE520BE0010E7425006E27
:1020C600000E7521016E00C074F101C075F1EDD7E7
:1020D600385139110AE07551395D02E17451385DA4
:1020E60004E238C174F139C175F13B51755D02E105
:1020F6003A51745D05E274513A5F75513B5B02D00B
:102106003A6B3B6B4DB716D03AC100F03BC101F0BC
:10211600010E3A5F000E3B5B005001100BE06BC1F5
:10212600E1FF6CC1E2FF200EE66E6B4B6C2B5E4A44
:102136005F2AEAD774C102F075C103F0010E745D1F
:10214600006E000E7559016E00C074F101C075F184
:102156000250031019E072C1E9FF73C1EAFF6BC1B7
:10216600E1FF6CC1E2FFEECFE6FF6B4B6C2B010E7D
:102176007225006E000E7321016E00C072F101C05F
:1021860073F15E4A5F2AD6D74DA716D03AC100F042
:102196003BC101F0010E3A5F000E3B5B005001109F
:1021A6000BE06BC1E1FF6CC1E2FF200EE66E6B4BEC
:1021B6006C2B5E4A5F2AEAD7F8D570C1E9FF71C178
:1021C600EAFFEECF00F0EECF01F000C0E9FF01C05C
:1021D600EAFFEECF4CF170C1E9FF71C1EAFF020ED2
:1021E600EE24006E000EEE20016E70C1E1FF71C19B
:1021F600E2FF00C0E6FF01C0E6FF4C0E726F010E63
:10220600736F010E746F000E756F62D7C00E4D139B
:10221600000E4E132FD04C51000AD8B40DD74C5196
:102226006C0AD8B40ED74C514C0AD8B40AD74C51C4
:102236006F0AD8B406D74C51640AD8B404D74C51A7
:10224600690AD8B400D74C51700AD8B4FDD64C519F
:10225600580AD8B4F9D64C51780AD8B4F6D64C51A7
:10226600730AD8B4F4D64C51630AA7E04C51750AE8
:10227600CDE0C3D7C00E4D15016E4EC102F0000E63
:102286000216000E021802E1000E01183BE170C1B1
:10229600E9FF71C1EAFFEECF00F0EECF01F000C01A
:1022A600E9FF01C0EAFFEECF72F1EECF73F170C124
:1022B600E9FF71C1EAFF020EEE24006E000EEE2069
:1022C600016E70C1E1FF71C1E2FF00C0E6FF01C00F
:1022D600E6FF800E7319006E800E005C02E1000EB0
:1022E600725D0FE2030E4D13000E4E13725100087D
:1022F600006E73C101F0000E015600C072F101C0FC
:1023060073F122D070C1E9FF71C1EAFFEECF00F090
:10231600EECF01F000C0E9FF01C0EAFFEECF72F197
:10232600EECF73F170C1E9FF71C1EAFF020EEE2430
:10233600006E000EEE20016E70C1E1FF71C1E2FF7A
:1023460000C0E6FF01C0E6FF000E391902E1000EEB
:10235600381908E1000E731902E1000E721902E144
:10236600384B392BC00E4D15006E00C005F07BD0E2
:10237600010E4C6F4C51050A23E04CC100F0000ED3
:10238600016E026E036E0036009001360236033689
:10239600DC0E0024F66E510E0120F76E000E0220B0
:1023A600F86E0900F5CF01F00900F5CF02F00250F2
:1023B600735D02E10150725D01E202D04C2BDAD767
:1023C6005FD0010E4C6F4C51040A23E04CC100F063
:1023D600000E016E026E036E003600900136023664
:1023E6000336E60E0024F66E510E0120F76E000E3F
:1023F6000220F86E0900F5CF01F00900F5CF02F0D2
:102406000250735D02E10150725D01E202D04C2B75
:10241600DAD736D0010E4C6F4C51060A23E04CC178
:1024260000F0000E016E026E036E0036009001365B
:1024360002360336D00E0024F66E510E0120F76EDA
:10244600000E0220F86E0900F5CF01F00900F5CF65
:1024560002F00250735D02E10150725D01E202D0AA
:102466004C2BDAD70DD00550000A82E00550C00A81
:10247600D8B47ED70550800AA4E00550400ACAE0C9
:10248600800E006E800E3919005C02E138514C5DF9
:1024960003E238C14CF10DD0800E3919006E800E62
:1024A600005C02E14C51385D04E24CC138F1000E8B
:1024B600396F3A513B110EE0030E4D15006E4EC1B9
:1024C60001F0000E01160050011004E0010E3A5F03
:1024D600000E3B5B800E3919006E800E3B19005CC6
:1024E60002E13A51385D05E238513A5F39513B5BBA
:1024F60002D03A6B3B6BC40E4D15016E4E51080B64
:10250600026E0250080A02E1400E011808E13A5133
:102516003B1104E0010E3A5F000E3B5B1CD0C00E7F
:102526004D15016E4E51080B026E0250080A02E16B
:10253600800E011810E1800E006E800E3B19005CC3
:1025460002E13A51020805E2020E3A5F000E3B5BD9
:1025560002D03A6B3B6B6BC193F16CC194F162ECA8
:1025660004F000C06BF101C06CF138C100F039C154
:1025760001F0010E385F000E395B00500110D8B42F
:10258600E6D0C00E4D15006E00C076F1C6D038C13B
:1025960000F039C101F0000E39BFFF0E026E036E66
:1025A60000360090013602360336DC0E0024F66E45
:1025B600510E0120F76E000E0220F86E0900F5CFCD
:1025C60004F00900F5CF05F072C100F073C101F007
:1025D600B8EC0EF00A0E046E000E056EB8EC0EF0A6
:1025E60008C000F009C001F0300E00244C6FA4D0E2
:1025F6004DAB35D038C100F039C101F0000E39BFFE
:10260600FF0E026E036E0036009001360236033668
:10261600E60E0024F66E510E0120F76E000E022023
:10262600F86E0900F5CF04F00900F5CF05F072C188
:1026360000F073C101F0B8EC0EF00F0E0016000E9C
:1026460001168C0E0024F66E510E0120F76E000E58
:10265600F86E000EF8220900F5CF4CF134D038C1DF
:1026660000F039C101F0000E39BFFF0E026E036E95
:1026760000360090013602360336E60E0024F66E6A
:10268600510E0120F76E000E0220F86E0900F5CFFC
:1026960004F00900F5CF05F072C100F073C101F036
:1026A600B8EC0EF00F0E0016000E01169D0E00245B
:1026B600F66E510E0120F76E000EF86E000EF8222F
:1026C6000900F5CF4CF138D038C100F039C101F01E
:1026D600000E39BFFF0E026E036E00360090013603
:1026E60002360336D00E0024F66E510E0120F76E28
:1026F600000E0220F86E0900F5CF04F00900F5CFB0
:1027060005F072C100F073C101F0B8EC0EF0070ECF
:1027160000144C6F300E4C270FD07651000AD8B4F7
:1027260036D77651C00AD8B432D77651800AD8B493
:102736005FD77651400AC8E06BC1E1FF6CC1E2FF8A
:102746004CC1E6FF6B4B6C2B5E4A5F2A0ED74DA73A
:102756001AD0800E006E800E3B19005C02E13A51E1
:10276600000811E26BC1E1FF6CC1E2FF200EE66ECC
:102776006B4B6C2B5E4A5F2A010E3A5F000E3B5B89
:102786003A513B11EFE1D8EF0EF05EC000F05FC0AA
:0427960001F012003C
:0E279A0089808982898489868988898A1200CB
:0E27A80092809282928492869288928A120087
:1027B60001018B6B8C6B7F6B806B6DC100F06EC102
:1027C60001F06FC102F0010E6D27000E6E236F231C
:1027D60000C0F6FF01C0F7FF02C0F8FF0900F5CF01
:1027E60000F000C07CF10052D8B4E9EF23F07C5130
:1027F600250A0BE06BC1E1FF6CC1E2FF7CC1E6FF7D
:102806006B4B6C2B8B4B8C2BD8D77D6B7E6B7F6B7E
:10281600806B23D07F87010E6D27000E6E236F23FA
:1028260059D07F81010E6D27000E6E236F2352D083
:102836007F83010E6D27000E6E236F234BD080879A
:10284600010E6D27000E6E236F2344D07F85010E87
:102856006D27000E6E236F233DD06DC1F6FF6EC14E
:10286600F7FF6FC1F8FF0900F5CF01F001502D0AFF
:10287600D1E06DC1F6FF6EC1F7FF6FC1F8FF090029
:10288600F5CF01F00150200ACCE06DC1F6FF6EC114
:10289600F7FF6FC1F8FF0900F5CF01F001502B0AD1
:1028A600C7E06DC1F6FF6EC1F7FF6FC1F8FF090003
:1028B600F5CF01F00150230AC2E06DC1F6FF6EC1EB
:1028C600F7FF6FC1F8FF0900F5CF01F00150300A9C
:1028D600BDE001D09ED77FA301D07F917FA701D015
:1028E6007F956DC1F6FF6EC1F7FF6FC1F8FF090056
:1028F600F5CF00F0000E016E00C093F1FBEC09F07D
:10290600005236E07D6B7E6B7DC100F07EC101F02A
:102916000A0E046E000E056E07EC0AF06DC1F6FF96
:102926006EC1F7FF6FC1F8FF0900F5CF02F0025044
:1029360000247D6F000E01207E6F300E7D5F000E3D
:102946007E5B010E6D27000E6E236F236DC1F6FFB1
:102956006EC1F7FF6FC1F8FF0900F5CF00F0000E5A
:10296600016E00C093F1FBEC09F00052CDE133D0CB
:102976006DC1F6FF6EC1F7FF6FC1F8FF0900F5CF15
:1029860001F001502A0A27E170C1E9FF71C1EAFF8F
:10299600EECF00F0EECF01F000C0E9FF01C0EAFF84
:1029A600EECF7DF1EECF7EF170C1E9FF71C1EAFF96
:1029B600020EEE24006E000EEE20016E70C1E1FFE5
:1029C60071C1E2FF00C0E6FF01C0E6FF010E6D2700
:1029D600000E6E236F236DC1F6FF6EC1F7FF6FC148
:1029E600F8FF0900F5CF01F001502E0A70E1010E43
:1029F6006D27000E6E236F236DC1F6FF6EC1F7FFC4
:102A06006FC1F8FF0900F5CF01F001502A0A28E14D
:102A160070C1E9FF71C1EAFFEECF00F0EECF01F021
:102A260000C0E9FF01C0EAFFEECF7AF1EECF7BF1FD
:102A360070C1E9FF71C1EAFF020EEE24006E000EBE
:102A4600EE20016E70C1E1FF71C1E2FF00C0E6FF3A
:102A560001C0E6FF010E6D27000E6E236F2336D0F0
:102A66007A6B7B6B6DC1F6FF6EC1F7FF6FC1F8FF26
:102A76000900F5CF00F0000E016E00C093F1FBECEB
:102A860009F0005223E07AC100F07BC101F00A0E82
:102A9600046E000E056E07EC0AF06DC1F6FF6EC1FE
:102AA600F7FF6FC1F8FF0900F5CF02F002500024CE
:102AB6007A6F000E01207B6F300E7A5F000E7B5B13
:102AC600010E6D27000E6E236F23CCD703D07A6BD1
:102AD6007B6B80896DC100F06EC101F06FC102F0A1
:102AE600010E6D27000E6E236F2300C0F6FF01C096
:102AF600F7FF02C0F8FF0900F5CF7CF1F9D08BC1D2
:102B060000F08CC101F0EDEF23F07F89E3D78085DB
:102B16002ED17F8B80812BD1808329D17F8D27D1A8
:102B260026D17F8B7F8F23D170C1E9FF71C1EAFF68
:102B3600EECF00F0EECF01F000C0E9FF01C0EAFFE2
:102B4600EECF87F1EECF88F170C1E9FF71C1EAFFE0
:102B5600020EEE24006E000EEE20016E70C1E1FF43
:102B660071C1E2FF00C0E6FF01C0E6FF000E881952
:102B760002E1000E871904E1210E876F000E886FAF
:102B8600896B8A6B89518725E96E8A518821EA6E9D
:102B9600EE520BE0010E8925006E000E8A21016EB1
:102BA60000C089F101C08AF1EDD77A517B110AE0A4
:102BB6008A517B5D02E189517A5D04E27AC189F12D
:102BC6007BC18AF17E518A5D02E17D51895D05E214
:102BD60089517D5F8A517E5B02D07D6B7E6B7FB7AC
:102BE60016D07DC100F07EC101F0010E7D5F000EA2
:102BF6007E5B005001100BE06BC1E1FF6CC1E2FF90
:102C0600200EE66E6B4B6C2B8B4B8C2BEAD789C157
:102C160002F08AC103F0010E895D006E000E8A592A
:102C2600016E00C089F101C08AF10250031019E05B
:102C360087C1E9FF88C1EAFF6BC1E1FF6CC1E2FF12
:102C4600EECFE6FF6B4B6C2B010E8725006E000E58
:102C56008821016E00C087F101C088F18B4B8C2B57
:102C6600D6D77FA716D07DC100F07EC101F0010E38
:102C76007D5F000E7E5B005001100BE06BC1E1FF33
:102C86006CC1E2FF200EE66E6B4B6C2B8B4B8C2BD4
:102C9600EAD793D570C1E9FF71C1EAFFEECF00F024
:102CA600EECF01F000C0E9FF01C0EAFFEECF7CF1F4
:102CB60070C1E9FF71C1EAFF020EEE24006E000E3C
:102CC600EE20016E70C1E1FF71C1E2FF00C0E6FFB8
:102CD60001C0E6FF7C0E876F010E886F010E896FBB
:102CE600000E8A6F62D7C00E7F13000E80133FD08E
:102CF6007C51000AD8B403D77C516C0AD8B405D7E6
:102D06007C514C0AD8B401D77C51660AD8B4FFD698
:102D16007C51450AD8B4FDD67C51650AD8B4FAD69A
:102D26007C51670AD8B4F8D67C516F0AD8B4F6D667
:102D36007C51640AD8B4F4D67C51690AD8B4F0D66A
:102D46007C51700AD8B4EDD67C51580AD8B4E9D66D
:102D56007C51780AD8B4E6D67C51730AD8B4E4D646
:102D66007C51630A97E07C51750ABDE0B3D7000E2B
:102D76007F15006E8051070B016E00500110D8B40C
:102D860090EF1FF080A904D0060E7A6F000E7B6FBD
:102D960070C1E9FF71C1EAFFEECF00F0EECF01F09E
:102DA60000C0E9FF01C0EAFFEECF81F1EECF82F16C
:102DB600EECF83F1EECF84F170C1E9FF71C1EAFF76
:102DC600040EEE24006E000EEE20016E70C1E1FFCF
:102DD60071C1E2FF00C0E6FF01C0E6FF046A056AB2
:102DE600066A076A81C100F082C101F083C102F060
:102DF60084C103F0C8EC0AF0010ED8B0000E006ED4
:102E0600005205E0837F030E7F13000E8013856B4F
:102E1600866B81C100F082C101F083C102F084C1DA
:102E260003F0046A056A066A076AA5EC0CF0000E50
:102E3600D8A4010E006E0052D8B48AD084C100F026
:102E4600016A026A036AFF0E0016000E01167E0E64
:102E5600005E000E015A00C085F101C086F1010E28
:102E6600005E000E015A00C085F101C086F1030E16
:102E7600046E000E056E07EC0AF000C085F101C075
:102E860086F10A0E046E000E056EBCEC0CF000C056
:102E960085F101C086F1800E0118026E800E025C7B
:102EA60002E1000E005C05E2010E0101855F000EE5
:102EB600865B010185510008936F5FEC06F081C1C6
:102EC60004F082C105F083C106F084C107F0ADECC1
:102ED60001F000C087F101C088F102C089F103C08A
:102EE6008AF1000E046E000E056E000E066E7F0E51
:102EF600076E87C100F088C101F089C102F08AC15E
:102F060003F0C8EC0AF0010ED8B0000E006E0052B5
:102F160005E0010E855F000E865B1AD0000E046E7A
:102F2600000E056E200E066E820E076E87C100F03B
:102F360088C101F089C102F08AC103F0C8EC0AF029
:102F4600000ED8B0010E006E005202E0854B862BB3
:102F5600800E006E800E8619005C02E18551000825
:102F660003E3010E7C6F02D085C17CF180B118D0DD
:102F760080A315D0800E8619006E7F0E005C02E1DC
:102F8600FC0E855D0BE3800E8619006E800E7B19A4
:102F9600005C02E17A51855D01E201D001D0EFD3F8
:102FA6007A517B1106E080A304D0010E7A5F000EF1
:102FB6007B5B7B51000802E17A51080803E2080EA8
:102FC6007C6F02D07AC17CF181C100F082C101F030
:102FD60083C102F084C103F0046A056A066A076ABF
:102FE600A5EC0CF0000ED8A4010E006E0052D8B469
:102FF6004BD185C193F15FEC06F000C004F001C02F
:1030060005F002C006F003C007F081C100F082C1DE
:1030160001F083C102F084C103F03DEC09F000C069
:1030260081F101C082F102C083F103C084F1010184
:103036007C510008936F5FEC06F000C004F001C0FD
:1030460005F002C006F003C007F081C100F082C19E
:1030560001F083C102F084C103F03DEC09F000C029
:103066008DF101C08EF102C08FF103C090F18DC1C8
:1030760081F18EC182F18FC183F190C184F18DC13E
:1030860000F08EC101F08FC102F090C103F04FEC49
:1030960005F0A1EC0EF000C004F001C005F002C07E
:1030A60006F003C007F08DC100F08EC101F08FC19C
:1030B60002F090C103F0B4EC0EF0000E046E000EA8
:1030C600056E000E066E7E0E076EC8EC0AF0000E48
:1030D600D8B0010E006E00521AE081C100F082C124
:1030E60001F083C102F084C103F0000E046E000EED
:1030F600056E000E066E7E0E076E3DEC02F000C0F9
:1031060081F101C082F102C083F103C084F181C163
:1031160000F082C101F083C102F084C103F04FECDC
:1031260005F001017C51010F096E0A6A000E0A22A0
:1031360009C004F00AC005F0000E0ABEFF0E066EB6
:10314600076E0436049005360636073604360490B4
:10315600053606360736440E0424F66E510E052053
:10316600F76E000E0620F86E0900F5CF05F009008F
:10317600F5CF06F00900F5CF07F00900F5CF08F006
:103186000850035C08E10750025C05E10650015C4B
:1031960002E10550005C1EE3010181C100F082C11D
:1031A60001F083C102F084C103F0CD0E046ECC0E93
:1031B600056E4C0E066E7B0E076EADEC01F000C080
:1031C60081F101C082F102C083F103C084F1854B15
:1031D600862B5AD081C100F082C101F083C102F072
:1031E60084C103F04FEC05F07CC104F0000E056EBF
:1031F600066E076E04360490053606360736043624
:103206000490053606360736440E0424F66E510E33
:103216000520F76E000E0620F86E0900F5CF05F0C2
:103226000900F5CF06F00900F5CF07F00900F5CF44
:1032360008F00850035C08E10750025C05E10650FF
:10324600015C02E10550005C1FE2010181C100F052
:1032560082C101F083C102F084C103F0000E046E46
:10326600000E056E200E066E820E076EADEC01F0A6
:1032760000C081F101C082F102C083F103C084F174
:10328600010E855F000E865B010180A393D080B797
:1032960091D0800E000A006E800E7B19005C02E160
:1032A6007A510A0804E20A0E7A6F000E7B6F81C11A
:1032B60000F082C101F083C102F084C103F04FEC3B
:1032C60005F000C087F101C088F102C089F103C092
:1032D6008AF18751881189118A1142E00A0E046E1B
:1032E600000E056E066E076E87C100F088C101F0FC
:1032F60089C102F08AC103F02FEC0BF008C000F080
:1033060009C001F00AC002F00BC003F0000E046E03
:10331600031808E10450021805E10450011802E1FF
:103326000050000A1DE1010E7A5F000E7B5B0A0E5B
:10333600046E000E056E066E076E87C100F088C12A
:1033460001F089C102F08AC103F02FEC0BF000C036
:1033560087F101C088F102C089F103C08AF1B9D7AB
:10336600800E7B19006E800E005C02E17C517A5D56
:1033760021E27A517C5D936F5FEC06F000C004F0A9
:1033860001C005F002C006F003C007F081C100F0DD
:1033960082C101F083C102F084C103F03DEC09F063
:1033A60000C081F101C082F102C083F103C084F143
:1033B6007AC17CF1050E01017A25006E000E7B2193
:1033C600016E00507D5F01507E5B7A517B1103E1F7
:1033D60080B701D004D0010E7D5F000E7E5B030E28
:1033E6007F15006E80C101F0000E0116005001101D
:1033F60004E0010E7D5F000E7E5B7FA539D07FA3C2
:1034060012D07FA103D02D0E726F02D02B0E726FD9
:103416006BC1E1FF6CC1E2FF72C1E6FF6B4B6C2B27
:103426008B4B8C2B0CD07FA10AD06BC1E1FF6CC1FA
:10343600E2FF200EE66E6B4B6C2B8B4B8C2B800EBB
:10344600006E800E7E19005C02E17D5100080FE2DD
:103456006BC1E1FF6CC1E2FF300EE66E6B4B6C2B6D
:103466008B4B8C2B010E7D5F000E7E5BE8D73AD02E
:103476007FB718D0800E006E800E7E19005C02E1C8
:103486007D5100080FE26BC1E1FF6CC1E2FF200E27
:10349600E66E6B4B6C2B8B4B8C2B010E7D5F000EFF
:1034A6007E5BE8D77FA312D07FA103D02D0E736F6A
:1034B60002D02B0E736F6BC1E1FF6CC1E2FF73C1CB
:1034C600E6FF6B4B6C2B8B4B8C2B0CD07FA10AD061
:1034D6006BC1E1FF6CC1E2FF200EE66E6B4B6C2BFD
:1034E6008B4B8C2B81C100F082C101F083C102F0AD
:1034F60084C103F04FEC05F000C087F101C088F1EC
:1035060002C089F103C08AF17CC100F0000E016E91
:10351600026E036E00360090013602360336003620
:103526000090013602360336440E0024F66E510E24
:103536000120F76E000E0220F86E0900F5CF04F0A8
:103546000900F5CF05F00900F5CF06F00900F5CF23
:1035560007F087C100F088C101F089C102F08AC175
:1035660003F02FEC0BF0300E00266BC1E1FF6CC1AF
:10357600E2FF00C0E6FF6B4B6C2B8B4B8C2B7A511A
:103586007B1103E180B701D06FD06BC1E1FF6CC145
:10359600E2FF2E0EE66E6B4B6C2B8B4B8C2B7C510D
:1035A6007A5F000E7B5B7C534DE07C077CC100F0AC
:1035B600000E016E026E036E003600900136023672
:1035C600033600360090013602360336440E0024D8
:1035D600F66E510E0120F76E000E0220F86E0900FD
:1035E600F5CF04F00900F5CF05F00900F5CF06F098
:1035F6000900F5CF07F087C100F088C101F089C145
:1036060002F08AC103F02FEC0BF00A0E046E000ED6
:10361600056E066E076E2FEC0BF008C000F009C0B1
:1036260001F00AC002F00BC003F0300E00266BC199
:10363600E1FF6CC1E2FF00C0E6FF6B4B6C2B8B4BCE
:103646008C2BB1D77A517B110FE06BC1E1FF6CC1B6
:10365600E2FF300EE66E6B4B6C2B8B4B8C2B010E08
:103666007A5F000E7B5BEED77FAB0BD06BC1E1FFC1
:103676006CC1E2FF450EE66E6B4B6C2B8B4B8C2BB5
:103686000AD06BC1E1FF6CC1E2FF650EE66E6B4BC3
:103696006C2B8B4B8C2B800E8619006E800E005C7B
:1036A60002E1000E855D11E285510008856F8651A5
:1036B600000E86576BC1E1FF6CC1E2FF2D0EE66E70
:1036C6006B4B6C2B8B4B8C2B0AD06BC1E1FF6CC107
:1036D600E2FF2B0EE66E6B4B6C2B8B4B8C2B0A0E84
:1036E600046E000E056E85C100F086C101F0BCECCB
:1036F6000CF0300E00266BC1E1FF6CC1E2FF00C08A
:10370600E6FF01016B4B6C2B8B4B8C2B0A0E046E68
:10371600000E056E85C100F086C101F0BCEC0CF010
:1037260008C000F009C001F0300E00266BC1E1FFB1
:103736006CC1E2FF00C0E6FF01016B4B6C2B8B4BAB
:103746008C2B7FA71AD0800E006E800E7E19005C2F
:1037560002E17D51000811E26BC1E1FF6CC1E2FF9D
:10376600200EE66E6B4B6C2B8B4B8C2B010E7D5F0C
:10377600000E7E5B7D517E11EFE1E0EF13F080A33A
:10378600F3D0800E8619006E800E005C02E1000EFA
:10379600855D0AE2010E855D006E000E8659016E9A
:1037A60000507A5F01507B5B81C100F082C101F05D
:1037B60083C102F084C103F04FEC05F000C087F12D
:1037C60001C088F102C089F103C08AF1010E7C6F45
:1037D6007C510A0A34E07CC100F0000E016E026ED4
:1037E600036E00360090013602360336003600902E
:1037F600013602360336440E0024F66E510E0120C1
:10380600F76E000E0220F86E0900F5CF01F00900F0
:10381600F5CF02F00900F5CF03F00900F5CF04F06B
:1038260004508A5D08E10350895D05E10250885D18
:1038360002E10150875D01E202D07C2BC9D77C51A1
:103846007A5D916F000E7B59926F91C17AF192C1A8
:103856007BF187C100F088C101F089C102F08AC1FD
:1038660003F0A1EC0EF000C004F001C005F002C0A8
:1038760006F003C007F081C100F082C101F083C1E8
:1038860002F084C103F0B4EC0EF000C08DF101C06B
:103896008EF102C08FF103C090F191C193F15FECFC
:1038A60006F08DC104F08EC105F08FC106F090C1FF
:1038B60007F0ADEC01F0000E046E000E056E000E72
:1038C600066E7E0E076E3DEC02F04FEC05F000C072
:1038D60087F101C088F102C089F103C08AF17A51EB
:1038E6007B1142E00A0E046E000E056E066E076E30
:1038F60087C100F088C101F089C102F08AC103F0D6
:103906002FEC0BF008C000F009C001F00AC002F06D
:103916000BC003F0000E046E031808E104500218F1
:1039260005E10450011802E10050000A1DE10A0EEB
:10393600046E000E056E066E076E87C100F088C124
:1039460001F089C102F08AC103F02FEC0BF000C030
:1039560087F101C088F102C089F103C08AF1010E26
:103966007A5F000E7B5BBBD7800E006E800E7B19E4
:10397600005C02E17A510C0816E37AC193F120EC5F
:103986000DF081C104F082C105F083C106F084C147
:1039960007F03DEC02F000C081F101C082F102C0E7
:1039A60083F103C084F181C100F082C101F083C1BB
:1039B60002F084C103F0046A056A066A076AA5EC88
:1039C6000CF0000ED8A4010E006E0052D8B477D0C9
:1039D60081C100F082C101F083C102F084C103F00D
:1039E6004FEC05F0000E046E031808E104500218AF
:1039F60005E10450011802E10050000A60E1800E62
:103A0600006E800E8619005C02E18551010857E2BE
:103A160085C193F15FEC06F000C004F001C005F02B
:103A260002C006F003C007F081C100F082C101F0B8
:103A360083C102F084C103F03DEC09F05F0E046E11
:103A4600700E056E090E066E810E076EC8EC0AF042
:103A5600010ED8B0000E006E005206E0090E0101FC
:103A6600855F000E865B05D00101080E855F000E9E
:103A7600865B85C193F15FEC06F000C004F001C0DF
:103A860005F002C006F003C007F081C100F082C154
:103A960001F083C102F084C103F03DEC09F04FEC64
:103AA60005F000C087F101C088F102C089F103C0AA
:103AB6008AF10101816B826B836B846B38D081C183
:103AC60000F082C101F083C102F084C103F04FEC23
:103AD60005F000C087F101C088F102C089F103C07A
:103AE6008AF187C100F088C101F089C102F08AC15C
:103AF60003F0A1EC0EF000C004F001C005F002C016
:103B060006F003C007F081C100F082C101F083C155
:103B160002F084C103F0B4EC0EF000C081F101C0E4
:103B260082F102C083F103C084F1856B866B010EBE
:103B36007C6F7C510A0A34E07CC100F0000E016EF5
:103B4600026E036E003600900136023603360036EA
:103B56000090013602360336440E0024F66E510EEE
:103B66000120F76E000E0220F86E0900F5CF01F075
:103B76000900F5CF02F00900F5CF03F00900F5CFF3
:103B860004F004508A5D08E10350895D05E10250A6
:103B9600885D02E10150875D01E202D07C2BC9D726
:103BA6007C517A25006E000E7B21016E8551002620
:103BB6008651012200507D5F01507E5B80B704D0A4
:103BC6007A517B1101E104D0010E7D5F000E7E5B10
:103BD600030E7F15006E80C101F0000E0116005025
:103BE600011004E0010E7D5F000E7E5B7FA539D0DB
:103BF6007FA312D07FA103D02D0E746F02D02B0E9F
:103C0600746F6BC1E1FF6CC1E2FF74C1E6FF6B4BE1
:103C16006C2B8B4B8C2B0CD07FA10AD06BC1E1FF98
:103C26006CC1E2FF200EE66E6B4B6C2B8B4B8C2B24
:103C3600800E006E800E7E19005C02E17D51000848
:103C46000FE26BC1E1FF6CC1E2FF300EE66E6B4B1B
:103C56006C2B8B4B8C2B010E7D5F000E7E5BE8D7A9
:103C66003AD07FB718D0800E006E800E7E19005CA9
:103C760002E17D5100080FE26BC1E1FF6CC1E2FF7A
:103C8600200EE66E6B4B6C2B8B4B8C2B010E7D5FE7
:103C9600000E7E5BE8D77FA312D07FA103D02D0E46
:103CA600756F02D02B0E756F6BC1E1FF6CC1E2FF21
:103CB60075C1E6FF6B4B6C2B8B4B8C2B0CD07FA10D
:103CC6000AD06BC1E1FF6CC1E2FF200EE66E6B4BC2
:103CD6006C2B8B4B8C2B7CC100F07C0700524CE08C
:103CE6007CC100F0000E016E026E036E003600907D
:103CF60001360236033600360090013602360336A8
:103D0600440E0024F66E510E0120F76E000E0220BE
:103D1600F86E0900F5CF04F00900F5CF05F00900AB
:103D2600F5CF06F00900F5CF07F087C100F088C18E
:103D360001F089C102F08AC103F02FEC0BF00A0EE4
:103D4600046E000E056E066E076E2FEC0BF008C0B3
:103D560000F009C001F00AC002F00BC003F0300EFB
:103D660000266BC1E1FF6CC1E2FF00C0E6FF6B4BB2
:103D76006C2B8B4B8C2BAFD7800E006E800E86196A
:103D8600005C02E1855100080FE26BC1E1FF6CC1E6
:103D9600E2FF300EE66E6B4B6C2B8B4B8C2B010EC1
:103DA600855F000E865BE8D7800E000A006E800EE7
:103DB6007B19005C02E17A51080803E2080E7C6F69
:103DC60002D07AC17CF17C517A5F000E7B5B7C531A
:103DD60003E180B701D00AD06BC1E1FF6CC1E2FFFD
:103DE6002E0EE66E6B4B6C2B8B4B8C2B7CC193F1A2
:103DF6005FEC06F081C104F082C105F083C106F0D4
:103E060084C107F0ADEC01F02FEC0AF000C087F199
:103E160001C088F102C089F103C08AF17C534DE0EC
:103E26007C077CC100F0000E016E026E036E003648
:103E3600009001360236033600360090013602360F
:103E46000336440E0024F66E510E0120F76E000E66
:103E56000220F86E0900F5CF04F00900F5CF05F051
:103E66000900F5CF06F00900F5CF07F087C100F08D
:103E760088C101F089C102F08AC103F02FEC0BF072
:103E86000A0E046E000E056E066E076E2FEC0BF022
:103E960008C000F009C001F00AC002F00BC003F030
:103EA600300E00266BC1E1FF6CC1E2FF00C0E6FFE9
:103EB6006B4B6C2B8B4B8C2BB1D77A517B110FE054
:103EC6006BC1E1FF6CC1E2FF300EE66E6B4B6C2BF3
:103ED6008B4B8C2B010E7A5F000E7B5BEED77FA798
:103EE6001AD0800E006E800E7E19005C02E17D51B4
:103EF600000811E26BC1E1FF6CC1E2FF200EE66E25
:103F06006B4B6C2B8B4B8C2B010E7D5F000E7E5BFF
:103F16007D517E11EFE1E0EF13F0C00E7F15016ECB
:103F260080C102F0000E0216000E021802E1000E19
:103F36000118D8A480D07FA927D070C1E9FF71C12C
:103F4600EAFFEECF00F0EECF01F000C0E9FF01C0BE
:103F5600EAFFEECF87F1EECF88F1EECF89F1EECF13
:103F66008AF170C1E9FF71C1EAFF040EEE24006E0A
:103F7600000EEE20016E70C1E1FF71C1E2FF00C0CC
:103F8600E6FF01C0E6FF2FD070C1E9FF71C1EAFF6D
:103F9600EECF00F0EECF01F000C0E9FF01C0EAFF6E
:103FA600EECF00F0EECF01F0000E01BEFF0E026E66
:103FB600036E00C087F101C088F102C089F103C019
:103FC6008AF170C1E9FF71C1EAFF020EEE24006EAC
:103FD600000EEE20016E70C1E1FF71C1E2FF00C06C
:103FE600E6FF01C0E6FF800E8A19006E800E005CB7
:103FF60008E1000E895D05E1000E885D02E1000E14
:10400600875D18E2030E7F13000E8013006A016AB3
:10401600026A036A8751005E8851015A8951025A21
:104026008A51035A00C087F101C088F102C089F1A4
:1040360003C08AF14ED07FA927D070C1E9FF71C1B4
:10404600EAFFEECF00F0EECF01F000C0E9FF01C0BD
:10405600EAFFEECF87F1EECF88F1EECF89F1EECF12
:104066008AF170C1E9FF71C1EAFF040EEE24006E09
:10407600000EEE20016E70C1E1FF71C1E2FF00C0CB
:10408600E6FF01C0E6FF25D070C1E9FF71C1EAFF76
:10409600EECF00F0EECF01F000C0E9FF01C0EAFF6D
:1040A600EECF87F1EECF88F1000E896F8A6F70C16F
:1040B600E9FF71C1EAFF020EEE24006E000EEE204B
:1040C600016E70C1E1FF71C1E2FF00C0E6FF01C0F1
:1040D600E6FF000E7B1902E1000E7A190FE1000ED1
:1040E600006E8A1908E10050891905E10050881907
:1040F60002E18751000A02E17A4B7B2BC00E7F1545
:10410600006E00C005F0AED0010E7C6F7C510A0A2D
:1041160034E07CC100F0000E016E026E036E0036C4
:10412600009001360236033600360090013602361C
:104136000336440E0024F66E510E0120F76E000E73
:104146000220F86E0900F5CF01F00900F5CF02F064
:104156000900F5CF03F00900F5CF04F004508A5D9D
:1041660008E10350895D05E10250885D02E10150D6
:10417600875D01E202D07C2BC9D782D0010E7C6F0D
:104186007C51080A34E07CC100F0000E016E026E1C
:10419600036E003600900136023603360036009074
:1041A6000136023603366C0E0024F66E510E0120DF
:1041B600F76E000E0220F86E0900F5CF01F0090037
:1041C600F5CF02F00900F5CF03F00900F5CF04F0B2
:1041D60004508A5D08E10350895D05E10250885D5F
:1041E60002E10150875D01E202D07C2BC9D748D09D
:1041F600010E7C6F7C510C0A34E07CC100F0000E8D
:10420600016E026E036E00360090013602360336EA
:1042160000360090013602360336140E0024F66E80
:10422600510E0120F76E000E0220F86E0900F5CF40
:1042360001F00900F5CF02F00900F5CF03F00900FF
:10424600F5CF04F004508A5D08E10350895D05E16D
:104256000250885D02E10150875D01E202D07C2BAD
:10426600C9D70ED00550000AD8B44ED70550C00A9B
:10427600D8B44AD70550800A81E00550400AB8E014
:10428600800E006E800E7B19005C02E17A517C5D27
:1042960003E27AC17CF10DD0800E7B19006E800E90
:1042A600005C02E17C517A5D04E27CC17AF1000E89
:1042B6007B6F7D517E110EE0030E7F15006E80C16F
:1042C60001F0000E01160050011004E0010E7D5FA2
:1042D600000E7E5B800E7B19006E800E7E19005CE0
:1042E60002E17D517A5D05E27A517D5F7B517E5B0D
:1042F60002D07D6B7E6BC40E7F15016E8051080B5C
:10430600026E0250080A02E1400E011808E17D51D2
:104316007E1104E0010E7D5F000E7E5B1CD0C00E98
:104326007F15016E8051080B026E0250080A02E1E9
:10433600800E011810E1800E006E800E7E19005C62
:1043460002E17D51020805E2020E7D5F000E7E5BF2
:1043560002D07D6B7E6B7FA55DD07FA312D07FA13F
:1043660003D02D0E766F02D02B0E766F6BC1E1FF58
:104376006CC1E2FF76C1E6FF6B4B6C2B8B4B8C2B33
:1043860034D07FA10BD06BC1E1FF6CC1E2FF200EE0
:10439600E66E6B4B6C2B8B4B8C2B27D0C00E7F1590
:1043A600016E8051080B026E0250080A02E1800E6F
:1043B60001181BE16BC1E1FF6CC1E2FF300EE66E36
:1043C6006B4B6C2B8B4B8C2B7FAB03D0580E776FC4
:1043D60002D0780E776F6BC1E1FF6CC1E2FF77C147
:1043E600E6FF6B4B6C2B8B4B8C2B7D517E1111E0BA
:1043F6006BC1E1FF6CC1E2FF300EE66E6B4B6C2BBE
:104406008B4B8C2B010E7D5F000E7E5B7D517E11EA
:10441600EFE174D07D517E1113E07FB711D06BC1EF
:10442600E1FF6CC1E2FF200EE66E6B4B6C2B8B4BF3
:104436008C2B010E7D5F000E7E5B7D517E11EFE1C0
:104446007FA312D07FA103D02D0E786F02D02B0E42
:10445600786F6BC1E1FF6CC1E2FF78C1E6FF6B4B81
:104466006C2B8B4B8C2B0CD07FA10AD06BC1E1FF40
:104476006CC1E2FF200EE66E6B4B6C2B8B4B8C2BCC
:10448600C00E7F15016E8051080B026E0250080A9D
:1044960002E1400E01180BE16BC1E1FF6CC1E2FFC6
:1044A600300EE66E6B4B6C2B8B4B8C2B27D0C00ED5
:1044B6007F15016E8051080B026E0250080A02E158
:1044C600800E01181BE16BC1E1FF6CC1E2FF300EEB
:1044D600E66E6B4B6C2B8B4B8C2B7FAB03D0580E45
:1044E600796F02D0780E796F6BC1E1FF6CC1E2FF84
:1044F60079C1E6FF6B4B6C2B8B4B8C2B800E006EC1
:10450600800E7B19005C02E17A517C5D0BE26BC187
:10451600E1FF6CC1E2FF300EE66E6B4B6C2B8B4BF2
:104526008C2BECD77AC100F07BC101F0010E7A5FCB
:10453600000E7B5B00500110D8B42AD1C00E7F1547
:10454600006E00C08DF10AD17AC100F07BC101F086
:10455600000E7BBFFF0E026E036E00360090013622
:104566000236033600360090013602360336440E14
:104576000024F66E510E0120F76E000E0220F86E32
:104586000900F5CF04F00900F5CF05F00900F5CFD5
:1045960006F00900F5CF07F087C100F088C101F0E9
:1045A60089C102F08AC103F02FEC0BF00A0E046EEB
:1045B600000E056E066E076E2FEC0BF008C000F0BD
:1045C60009C001F00AC002F00BC003F0300E00244F
:1045D6007C6FD3D07FAB45D07AC100F07BC101F0B0
:1045E600000E7BBFFF0E026E036E00360090013692
:1045F60002360336003600900136023603366C0E5C
:104606000024F66E510E0120F76E000E0220F86EA1
:104616000900F5CF04F00900F5CF05F00900F5CF44
:1046260006F00900F5CF07F087C100F088C101F058
:1046360089C102F08AC103F02FEC0BF00F0E0016B1
:10464600000E011602160316BF0E0024F66E510E5A
:104656000120F76E000E0220F86E0900F5CF7CF1FE
:1046660044D07AC100F07BC101F0000E7BBFFF0E83
:10467600026E036E003600900136023603360036AF
:1046860000900136023603366C0E0024F66E510E8B
:104696000120F76E000E0220F86E0900F5CF04F037
:1046A6000900F5CF05F00900F5CF06F00900F5CFB2
:1046B60007F087C100F088C101F089C102F08AC104
:1046C60003F02FEC0BF00F0E0016000E011602166B
:1046D6000316AE0E0024F66E510E0120F76E000E84
:1046E6000220F86E0900F5CF7CF147D07AC100F0C0
:1046F6007BC101F0000E7BBFFF0E026E036E00361B
:104706000090013602360336003600900136023636
:104716000336140E0024F66E510E0120F76E000EBD
:104726000220F86E0900F5CF04F00900F5CF05F078
:104736000900F5CF06F00900F5CF07F087C100F0B4
:1047460088C101F089C102F08AC103F02FEC0BF099
:10475600070E00147C6F300E7C270FD08D51000A97
:10476600D8B4F2D68D51C00AD8B4EED68D51800A8F
:10477600D8B430D78D51400AB9E06BC1E1FF6CC1A6
:10478600E2FF7CC1E6FF6B4B6C2B8B4B8C2BCAD6A6
:104796007FA71AD0800E006E800E7E19005C02E1A3
:1047A6007D51000811E26BC1E1FF6CC1E2FF200EF2
:1047B600E66E6B4B6C2B8B4B8C2B010E7D5F000ECC
:1047C6007E5B7D517E11EFE1E0EF13F08BC100F0CF
:0647D6008CC101F012008D
:1047DC00CD6AEC0ECF6E780ECE6ECD9ACD989E90A3
:0447EC00CD9012005A
:1047F0000C6A0E6A0250D8A411EF24F001C002F036
:1048000000C001F0006A0E860250D8A411EF24F017
:1048100001C002F0016A0E960E880250D8B423EF50
:1048200024F00E50035ED8A4D8A029EF24F0D8902D
:1048300002BE2FEF24F0003601360236032E18EFA9
:1048400024F029EF24F0010E0C6E1FEC00F033EF82
:1048500024F0020E0C6E12EC00F033EF24F0040E84
:084860000C6E0EEC00F01200DA
:0E486800ACB202D00000FCD76BC1ADFF120055
:0E48760092909292929492969298929A120038
:10488400ABDF8A84F6DFCDEC13F0030E0D6E0D2E34
:10489400FED7D4EC13F0CD800101566B56510808B5
:1048A40011E356C100F0000E016E0036009001368F
:1048B400600E0024E16E000E0120E26EE66AE66AF4
:1048C400562BECD7386A9EB067D080B00FD038B082
:1048D4000DD0CFCF60F0000E0001616F60C061F0B9
:1048E400606BCE506013000E6113388080B20FD01D
:1048F40038B20DD00001CFCF62F0000E636F62C0FA
:1049040063F0626BCE506213000E6313388280B47E
:104914000FD038B40DD00001CFCF64F0000E656F16
:1049240064C065F0646BCE506413000E6513388464
:1049340080B60FD038B60DD00001CFCF66F0000E90
:10494400676F66C067F0666BCE506613000E671320
:10495400388680B80FD038B80DD00001CFCF68F0BA
:10496400000E696F68C069F0686BCE506813000E62
:104974006913388880BA0FD038BA0DD00001CFCF70
:104984006AF0000E6B6F6AC06BF06A6BCE506A13EC
:0C499400000E6B13388A97D78A9412002B
:1049A0005B0E0101696F010E6A6F56C16BF157C151
:1049B0006CF158C16DF159C16EF15AC16FF1690EB8
:1049C000706F010E716FDBEC13F000C067F101C076
:1049D00068F100505625E16E01505721E26EE66AFB
:0A49E00067C100F068C101F0120089
:1049EA000101596B56C1E9FF57C1EAFFEECF58F1F1
:1049FA005851000A0EE058C16BF131DF0101592B01
:104A0A0059515625E96E000E5721EA6EEECF58F13C
:044A1A00EFD71200C0
:104A1E000050086E0150006E016A026A036A0B6A4A
:104A2E000C6A960E036E0A6A00C001F008C000F010
:084A3E00086A026AD6DE1200CC
:104A46005B0E0101696F010E6A6F56C16BF157C1AA
:104A56006CF158C16DF159C16EF15AC16FF1690E11
:104A6600706F010E716FD3EC0EF000C067F101C0DC
:104A760068F100505625E16E01505721E26EE66A54
:0A4A860067C100F068C101F01200E2
:084A9000906A9798979A1200B2
:104A9800BB50010F006E016A000E01224FC104F0E5
:104AA800000E056E07EC0AF0060E026E00C004F058
:104AB80001C005F0025005E005320432059EFF0FE3
:104AC800FAD7040E016E04C000F0015004E000366D
:104AD8000090FF0FFBD7300E0014036E04C000F0E7
:104AE80005C001F001320032019E01320032019E00
:0E4AF80000C0BEFF0F0EBD160350BD1212000F
:104B0600BB50010F006E016A000E01224FC104F076
:104B1600000E056E07EC0AF0060E026E00C004F0E9
:104B260001C005F0025005E005320432059EFF0F74
:104B3600FAD7040E016E04C000F0015004E00036FE
:104B46000090FF0FFBD7300E0014036E04C000F078
:104B560005C001F001320032019E01320032019E91
:0E4B660000C090FF0F0E97160350971212001A
:104B7400680E01013C6F480E3D6F6B0E3E6F010ED7
:104B84003F6FFF0E486FFF0E496F000E4A6F000E15
:104B94004B6FFF0E446FFF0E456F000E466F000E05
:104BA400476FFF0E406FFF0E416F000E426F000E05
:104BB400436FAC8A900EAB6E948E949C9EAA03D0E5
:084BC400AECF00F0FBD7120098
:084BCC00BE6ABD98BD9A1200FB
:104BD4000900F5CFE6FF0006FBE10106F9E112004A
:104BE400700E0101566F000E576F070E586F500E6E
:104BF400596F000E5A6F28C05BF129C05CF12AC0BE
:104C04005DF12BC05EF12CC05FF12DC060F12EC0B0
:104C140061F12FC062F130C063F131C064F132C080
:104C240065F133C066F1BADE700E566F000E576F31
:104C3400DADE700E566F000E576FCA0E586F4F0EA5
:104C4400596F000E5A6F39C05BF13AC05CF13BC03A
:104C54005DF13CC05EF13DC05FF13EC060F13FC01C
:104C640061F140C062F141C063F142C064F143C0EC
:104C740065F144C066F192DE700E566F000E576FF8
:044C8400B2DE12008A
:104C880001014F6B060E4F5DD8B08AD04FC154F169
:104C9800000E556F543754915537280E5425E96E38
:104CA800000E5521EA6EEECF00F0EECF01F0B3DE34
:104CB80000C050F101C051F102C052F103C053F1DC
:104CC800390E5425E96E000E5521EA6EEECF00F03C
:104CD800EECF01F0A0DE50C104F051C105F052C181
:104CE80006F053C107F0B4EC0EF0000E046E000E8F
:104CF800056E000E066E800E076E3DEC09F0600E24
:104D080001015425E96E000E5521EA6E50C104F0E8
:104D180051C105F052C106F053C107F03DEC02F055
:104D280000C050F101C051F102C052F103C053F16B
:104D3800EECF00F0EECF01F06EDE50C104F051C1AD
:104D480005F052C106F053C107F0C8EC0AF0000E96
:104D5800D8B0010E006E005212E04FC100F0000EF4
:104D6800016E0036009001364E0E0024E16E000EF2
:104D78000120E26E010EE66E000EE66E0FD04FC106
:104D880000F0000E016E0036009001364E0E002431
:104D9800E16E000E0120E26EE66AE66A4F2B72D7DA
:024DA8001200F7
:104DAA00700E0101566F000E576FE30E586F500ECA
:104DBA00596F000E5A6F4EC05BF14FC05CF150C084
:104DCA005DF151C05EF152C05FF153C060F154C051
:104DDA0061F155C062F156C063F157C064F158C021
:104DEA0065F159C066F12ADE700E566F000E576FD4
:044DFA00F7DD1200CF
:0A4DFE009494BA840C0EBD1212004A
:0A4E08009492BA840C0E9712120067
:104E12008B9001014F6B506B000E006E5051005C85
:104E220002E14F51C808D8A07BD0516B060E515DEC
:104E320074E227DD51C100F0000E016E00360090D1
:104E42000136600E0024E96E000E0120EA6EEECFFC
:104E520003F0EECF04F0390E0024D96E000E0120CB
:104E6200DA6EDECF01F0DECF02F00250045C02E126
:104E72000150035C17E351C100F0000E016E0036D1
:104E820000900136390E0024E16E000E0120E26E20
:104E9200600E0024E96E000E0120EA6EEECFE6FFFE
:104EA200EECFE6FF51C100F0000E016E0036009019
:104EB2000136600E0024E96E000E0120EA6EEECF8C
:104EC20003F0EECF04F0280E0024D96E000E01206C
:104ED200DA6EDECF01F0DECF02F00450025C02E1B6
:104EE2000350015C17E351C100F0000E016E003661
:104EF20000900136280E0024E16E000E0120E26EC1
:104F0200600E0024E96E000E0120EA6EEECFE6FF8D
:104F1200EECFE6FF0101512B89D74F4B502B7CD7A7
:104F22008B80030E0B6E8A0E0C6E550E0D6E0D2EBF
:104F3200FED70C2EFCD70B2EFAD7000000008B9068
:024F420012005B
:104F4400F7EC28F00F015B6B5C6B5D6B94929494AF
:104F54009396939893949490938EF19EB886B06AA6
:104F6400670EAF6EAC8404DE150E566F000E576FDD
:104F74003ADDBA80BA82F90EBB6E26DEBA80BA82F6
:104F8400F90EBB6E83DD4F6B85DD01014F6BB9DD1F
:104F940034DF38DF3CDF24DE81AE01D0FDD770DCA6
:104FA40071DE01DF8B70060E0B6E130E0C6EAD0EF0
:104FB4000D6E0D2EFED70C2EFCD70B2EFAD700004B
:064FC4000000EDD7FFD74D
:1051EE0010EE15F0390E006E010E016E420EF66EC7
:0E51FE00500EF76E000EF86EEAEC25F012006F
:104FCA006D6178313D25752020206D6178323D254F
:104FDA007520206D6178333D25752020206D61781C
:104FEA00343D25752020206D6178353D25752020BA
:0D4FFA00206D6178363D25750D0A0D0A0009
:105007006D696E313D25752020206D696E323D2515
:105017007520206D696E333D25752020206D696EE2
:10502700343D25752020206D696E353D257520207E
:0B503700206D696E363D25750D0A00E6
:0C504200494E494349414E444F0D0A00BD
:07504E00286E756C6C29004F
:10505500FFFFFFFFFFFFFFFFFFFFFFFFFFFFFFFF5B
:01506500004A
:10506600000000000000000000000000000000003A
:055076006E756C6C007A
:10507B000000007FCDCC4C7B0AD723786F120375D1
:10508B0017B75171ACC5276EBD37066B95BF566709
:10509B0077CC2B645F700961FFE65B5D08E53C3CF8
:0450AB006042221B22
:1050AF000000007F000020820000488500007A8801
:1050BF0000401C8C0050438F0024749280961896E9
:1050CF0020BC3E99286B6E9CF90215A0EC782DC17F
:0450DF00CAF249E2E6
:1050E30073313D257520202073323D2575202073B3
:1050F300333D257520202073343D257520202073F2
:10510300353D257520202073363D25750D0A0D0A82
:01511300009B
:105114000100000008000000400000000002000040
:1051240000100000008000000000040000002000C7
:105134000000000100000008000000400000000022
:10514400010000000A00000064000000E803000001
:1051540010270000A086010040420F0080969800AE
:0851640000E1F50500CA9A3BC9
:10516C000100000010000000000100000010000011
:10517C000000010000001000000000010000001001
:10518C003031323334353637383941424344454671
:01519C000012
:10519D0030313233343536373839616263646566A0
:0151AD000001
:1051AE00303132333435363738396162636465668F
:0151BE0000F0
:1051BF00303132333435363738394142434445463E
:0151CF0000DF
:0C51D000010008004000000200100080F8
:0A51DC0001000A006400E803102738
:0851E60001001000000100109F
:020000040030CA
:0E00000000015E3CFFD381FF0FC00FE00F40F8
:00000001FF
