:100000000C9434000C947A000C947A000C947A00CE
:100010000C947A000C947A000C947A000C947A0078
:100020000C947A000C947A000C947A000C947A0068
:100030000C947A000C947A000C947A000C947A0058
:100040000C9440000C947A000C947A000C947A0082
:100050000C947A000C947A000C947A000C947A0038
:100060000C947A000C947A0011241FBECFEFD8E0D4
:10007000DEBFCDBF0E9466000C943E00F894FFCF17
:100080001F920F920FB60F9211242F933F934F930D
:100090005F936F937F938F939F93AF93BF93EF93F0
:1000A000FF938AEF86BD0E947700FF91EF91BF9189
:1000B000AF919F918F917F916F915F914F913F9100
:0C00C0002F910F900FBE0F901F9018950D
:1000CC008EE08AB91BB886E084B915B88AEF86BD74
:1000DC0083E085BD91E090936E00809381007894CD
:0200EC00FFCF44
:0600EE00299A2A9A0895E8
:0400F4000C94000068
:00000001FF
