:100000000C943D000C94C9010C94C9010C94C901D5
:100010000C94C9010C942B010C94C9010C94C901D6
:100020000C94C9010C94C9010C94C9010C94C90128
:100030000C94C9010C94C9010C94C9010C94C90118
:100040000C94D8000C94C9010C9403010C94C901C0
:100050000C94C9010C94C9010C94C9010C94C901F8
:100060000C94C9010C94C9010100010F80010F011A
:100070002700039601270129800011241FBECFEF1E
:10008000D8E0DEBFCDBFE8E6F0E040E017C0B591B4
:10009000A59135912591059107FD0CC0959185910C
:1000A000EF01F92FE82F05900D92A217B307D9F7AA
:1000B000FE0104C01D92A217B307E1F7E937F40768
:0E00C00031F70E945B010C946500F894FFCFAD
:1000CE0021E02093280130990AC0319908C0329955
:1000DE0006C0339904C0349902C0359B2EC02D9AA8
:1000EE00309B05C0309B03C021E0FC012083319B77
:1000FE0005C0319B03C021E0FC012183329B05C06A
:10010E00329B03C021E0FC012283339B05C0339B4D
:10011E0003C021E0FC012383349B05C0349B03C044
:10012E0021E0FC012483359B05C0359B03C021E0F3
:10013E00FC012583109228010895309B0AC0319B43
:10014E0008C0329B06C0339B04C0349B02C0359955
:10015E0027C02D98309904C0309902C0FC0110823E
:10016E00319904C0319902C0FC011182329904C048
:10017E00329902C0FC011282339904C0339902C035
:10018E00FC011382349904C0349902C0FC0114821C
:10019E00359904C0359902C0FC01158210922801D0
:0201AE000895B2
:1001B0001F920F920FB60F9211242F933F934F93DC
:1001C0005F936F937F938F939F93AF93BF93EF93BF
:1001D000FF9388E386BD809100018F5F80930001CB
:1001E0000E944301FF91EF91BF91AF919F918F9139
:1001F0007F916F915F914F913F912F910F900FBE23
:060200000F901F901895FD
:100206001F920F920FB60F9211242F933F934F9385
:100216005F936F937F938F939F93AF93BF93EF9368
:10022600FF938091C60080930E010E94BA01FF9150
:10023600EF91BF91AF919F918F917F916F915F9158
:100246004F913F912F910F900FBE0F901F901895D1
:100256001F920F920FB60F9211248F934C990AC0DA
:1002660080912701882319F01092270103C081E0AD
:10027600809327018F910F900FBE0F901F901895B6
:1002860080912701882389F080910001823010F047
:100296000E947C0180910001843048F082E091E068
:1002A6000E9467001092000108950E94B10108950E
:1002B600F8940E9499010E948B010E94A6010E9457
:1002C600C2018FE091E00E946D0183E0809381007E
:0402D6007894FFCF4A
:1002DA00CF93DF93EC018881882331F021960E9425
:0E02EA00BA0189918111FBCFDF91CF91089568
:1002F8008091280181110AC08FE787B988B995E3F1
:0E0308009A95F1F7000018B817B888B9089553
:1003160085B78F7E85BF86E384B915B88FE787B921
:0C03260018B88EE08AB981E18BB9089507
:1003320087E690E09093C5008093C40088E980939B
:0A034200C10086E08093C200089518
:10034C0088E386BD82E085BD81E080936E0083EA00
:06035C008093800008956B
:10036200109289001092880010928B0010928A00DD
:020372000895EC
:100374008093C600E0ECF0E0808185FFFDCF089516
:0E03840084E08093680080E180936D0008950E
:040392000C940000C7
:10039600415045525445205041524120494E49430F
:0803A6004941522E2E2E0A00DF
:00000001FF
