:100000000C9449000C9456030C9456030C9456031C
:100010000C9456030C9456030C9456030C945603FC
:100020000C9456030C9456030C9456030C945603EC
:100030000C9456030C9456030C9456030C945603DC
:100040000C94F5010C9456030C94A3010C945603E4
:100050000C9456030C941B020C9456030C945603F8
:100060000C9456030C9456030100010C80010C0102
:10007000120006B00112012480012401250006B6F9
:100080000125012A80012A012B0006B7012B012C32
:10009000800011241FBECFEFD8E0DEBFCDBFE8E661
:1000A000F0E040E017C0B591A591359125910591FB
:1000B00007FD0CC095918591EF01F92FE82F059070
:1000C0000D92A217B307D9F7FE0104C01D92A21723
:1000D000B307E1F7E139F40731F70E9453030C94B9
:0600E0007100F894FFCF4F
:1000E600CF93DF9380910001823320F49091050134
:1000F600923E30F4823E40F180910501823320F534
:1001060080912B010E948E0290E0CEE5D1E0C81BC3
:10011600D90BD0931B01C0931A01825A9E4F90931C
:100126001901809318010E9449030E943F02D0934F
:100136008900C093880080911801909119019093CD
:100146008B0080938A0027C080912B010E948E022B
:1001560090E020E931E0281B390B309321012093F0
:10016600200180579E4F90931F0180931E010E948D
:1001760049030E943F0280912001909121019093B2
:1001860089008093880080911E0190911F019093B1
:0C0196008B0080938A00DF91CF910895C8
:1001A20080912401823011F128F4882349F08130B2
:1001B20091F048C0843081F120F18530C1F142C014
:1001C20081E080932401809178008093000182E095
:1001D2000E94E402089582E08093240180917800D5
:1001E2008093010181E00E94E402089583E08093FC
:1001F2002401809178008093020180E00E94E40251
:10020200089584E080932401809178008093030113
:1002120087E00E94E402089585E0809324018091A2
:1002220078008093040186E00E94E402089586E04B
:1002320080932401809178008093050183E00E94DD
:10024200E40208951092240183E00E94E402809166
:0802520078008093000108957B
:10025A002D9A0E94D1000E94CD010E945B022D9826
:10026A002FEF89E698E1215080409040E1F700C0E5
:10027A0000002D9A2FEF83ED90E3215080409040AB
:10028A00E1F700C000002D982FEF89E698E1215090
:10029A0080409040E1F700C000002D9A2FEF89E6D8
:1002AA0098E1215080409040E1F700C000002D986D
:1002BA002FEF87EA91E6215080409040E1F700C095
:0A02CA00000081E0809327010895F1
:1002D400E0E0F1E08081218130E0A901440F551F65
:1002E400322F2227241B350BA9017DEF879F400D58
:1002F400511D1124858190E09C01220F331F280F8A
:10030400391F848190E0880F991F280F391F63815A
:100314008281FA017FEF879FE00DF11D1124260FE2
:10032400311D2E0F3F1FABEABAEA0E9402039695D5
:1003340087959695879596958795819580932B01BA
:0203440008951A
:100346001F920F920FB60F9211242F933F934F9344
:100356005F936F937F938F939F93AF93BF93EF9327
:10036600FF938091C60080930B0180910B010E9440
:100376003303FF91EF91BF91AF919F918F917F9141
:100386006F915F914F913F912F910F900FBE0F90FC
:040396001F90189507
:10039A00CF93DF9348E750E022E131E017C089911B
:1003AA009081891708F480839C91981708F48C939C
:1003BA0031961196E217F30791F78FE39CE90197BB
:1003CA00F1F700C000004150510939F0C0E0D1E016
:1003DA00ECE0F1E0A2E1B1E0E2CFDF91CF91089544
:1003EA001F920F920FB60F9211242F933F934F93A0
:1003FA005F936F937F938F939F93AF93BF93EF9383
:10040A00FF9388E386BD0E94CF02FF91EF91BF91CF
:10041A00AF919F918F917F916F915F914F913F9192
:0C042A002F910F900FBE0F901F9018959F
:100436001F920F920FB60F9211242F933F934F9353
:100446005F936F937F938F939F93AF93BF93EF9336
:10045600FF930E94D100FF91EF91BF91AF919F91C1
:100466008F917F916F915F914F913F912F910F9057
:080476000FBE0F901F901895B6
:10047E008091200190912101811594403CF088EEED
:10048E0093E09093210180932001089580911E01A5
:10049E0090911F018115944034F088EE93E0909373
:0804AE001F0180931E01089557
:1004B6002091290190912A01ECE0F1E0A2E1B1E05E
:1004C60042E151E08191281708F4282F8D91891770
:1004D60008F4982FE417F507A9F7209329019093BC
:0404E6002A0108954A
:1004EA0085B78F7E85BF8AE78AB980E88BB986E2AD
:1004FA0084B981E085B917B88FE088B982EA809318
:10050A00800084E0809381000E9411030E943B03D3
:02051A00089542
:10051C00282F30E040911C0150911D01420F531FB8
:10052C0050931D0140931C0180932501C9019695A0
:0C053C008795969587959695879508956C
:100548002091290190912A01E0E0F1E046E051E094
:10055800DF018081821708F420838C91981708F4B2
:0C0568009C933196E417F50799F708956D
:1005740080912601882339F0809123018F5F809335
:1005840023011092260180912301823028F00E94D9
:0A0594001D0381E080932801089503
:10059E0080912701882381F00E94F3020E94BA0203
:1005AE0080912201833020F48F5F80932201089581
:0A05BE000E94280310922201089504
:1005C800ECE7F0E09081907F908390818F70982B7A
:0E05D8009083EAE7F0E08081806480830895DC
:1005E600189905C04F9903C0109226010895189BCB
:0E05F60005C04F9903C081E08093260108954F
:10060400A29FB001B39FC001A39F700D811D11244F
:0E061400911DB29F700D811D1124911D08953E
:1006220080E480937C008CE880937A0010927B00B7
:080632008FE380937E00089520
:10063A000E944E03109289001092880010928B003B
:06064A0010928A000895E1
:1006500080912801811106C00E94A4020E946A01B3
:060660000E9473000895E2
:100666008093C600E0ECF0E0808185FFFDCF089521
:1006760082E085BD88E386BD81E080936E000895A3
:0C0686000E9475020E942D0178940895D6
:0A0692005D9A5E985B9A5C980895EB
:0A069C005D985E985B985C980895E5
:0606A6000E944303FFCF98
:0406AC000C940000AA
:0606B000FFFFFFFFFFFF4A
:0106B6000A39
:0106B700FF43
:00000001FF
