:100000000C9462000C9476050C94A5060C949A0549
:100010000C94A5060C94A5060C94A5060C94A506B4
:100020000C94A5060C94A5060C94A5060C94A506A4
:100030000C94A5060C94A5060C94A5060C94A50694
:100040000C942C050C94A5060C94D5040C94A506D0
:100050000C94A5060C9452050C94A5060C94A506C8
:100060000C94A5060C94A506AD000C030C03DF0050
:100070000C030C030C0314010C030C030C030C0302
:100080000C030C0349010C030C038D010C03BF018D
:100090000C030C030C030C03F40129020C035E0295
:1000A00090020C03C9020100012B80012B013000DA
:1000B0000D4E013001388001380139000D530139EE
:1000C000013A800011241FBECFEFD8E0DEBFCDBFC4
:1000D000E6EAF0E040E017C0B591A5913591259191
:1000E000059107FD0CC095918591EF01F92FE82F3F
:1000F00005900D92A217B307D9F7FE0104C01D9217
:10010000A217B307E1F7E33CF40731F70E94A20618
:080110000C948A00F894FFCF63
:100118002091320130E080913101281B3109309360
:1001280024012093230184E690E090932201809398
:10013800210146B1E42FEF71E09339014E2F50E0D1
:100148004F31510508F064C2FA01EC5CFF4F0C9482
:1001580073061092200110921F0110921E01109236
:100168001D0110921C0110921B0184E690E0821B75
:10017800930B0E946E039093140180931301809156
:100188001B0190911C010E941B03209113013091C7
:1001980014012C593F4FAC01420F531F50931A01C1
:1001A80040931901281B390B30931801209317012C
:1001B8000E9488062DC284E090E0909320018093ED
:1001C8001F0180911D0190911E01049790931C01BD
:1001D80080931B0184E690E0821B930B0E946E03C0
:1001E800909314018093130180911B0190911C013D
:1001F8000E941B0320911301309114012C593F4F89
:10020800AC01420F531F50931A0140931901281B48
:10021800390B30931801209317010E948806F8C102
:1002280086E090E09093200180931F0180911D014A
:1002380090911E01069790931C0180931B0184E600
:1002480090E0821B930B0E946E039093140180939D
:10025800130180911B0190911C010E941B032091A6
:10026800130130911401205B3F4FAC01420F531F23
:1002780050931A0140931901281B390B3093180128
:10028800209317010E948806C3C188E090E09093EC
:10029800200180931F0110922201109221010E94D7
:1002A8008D06809121019091220140912301509166
:1002B800240120911D0130911E0160911F01709150
:1002C8002001261B370B30931C0120931B01841B34
:1002D800950B0E946E0390931401809313018091F3
:1002E8001B0190911C010E941B0320911301309166
:1002F80014012C593F4FAC01420F531F50931A0160
:1003080040931901281B390B3093180120931701CA
:100318007FC11092200110921F0110921E011092AD
:100328001D0110921C0110921B0184E690E0821BB3
:10033800930B0E946E039093140180931301809194
:100348001B0190911C010E941B0320911301309105
:1003580014012C593F4FAC01420F531F50931A01FF
:1003680040931901281B390B30931801209317016A
:100378000E9488064DC182E090E09093200180930E
:100388001F0180911D0190911E01029790931C01FD
:1003980080931B0184E690E0821B930B0E946E03FE
:1003A800909314018093130180911B0190911C017B
:1003B8000E941B0320911301309114012C593F4FC7
:1003C800AC01420F531F50931A0140931901281B87
:1003D800390B30931801209317010E94880618C121
:1003E8008CEF9FEF9093200180931F0180911D0156
:1003F80090911E01049690931C0180931B0184E642
:1004080090E0821B930B0E946E03909314018093DB
:10041800130180911B0190911C010E941B032091E4
:100428001301309114012C593F4FAC01420F531F57
:1004380050931A0140931901281B390B3093180166
:10044800209317010E948806E3C08EEF9FEF9093D8
:10045800200180931F0180911D0190911E01029639
:1004680090931C0180931B0184E690E0821B930B00
:100478000E946E03909314018093130180911B01D5
:1004880090911C010E941B032091130130911401CB
:100498002C593F4FAC01420F531F50931A01409300
:1004A8001901281B390B30931801209317010E945A
:1004B8008806AEC01092200110921F0110921E01F2
:1004C80010921D0110921C0110921B0184E690E00D
:1004D800821B930B0E946E03909314018093130167
:1004E80080911B0190911C010E941B032091130114
:1004F800309114012C593F4FAC01420F531F5093B8
:100508001A0140931901281B390B309318012093C5
:1005180017010E9488067CC08AEF9FEF9093200104
:1005280080931F01109222011092210180911D01D8
:1005380090911E01069690931C0180931B018827B9
:100548009927821B930B0E946E039093140180934A
:10055800130180911B0190911C010E941B032091A3
:10056800130130911401205B3F4FAC01420F531F20
:1005780050931A0140931901281B390B3093180125
:10058800209317010E94880643C088EF9FEF90933D
:10059800200180931F0110922201109221010E94D4
:1005A800920680912101909122014091230150915E
:1005B800240120911D0130911E0160911F0170914D
:1005C8002001261B370B30931C0120931B01841B31
:1005D800950B0E946E0390931401809313018091F0
:1005E8001B0190911C010E941B0320911301309163
:1005F80014012C593F4FAC01420F531F50931A015D
:1006080040931901281B390B3093180120931701C7
:100618000E9444048091190190911A010E947E065B
:0E06280080911701909118010E9479060895A3
:10063600009739F4109212011092110140E050E037
:1006460029C0AC01440F551F480F591F440F551FB1
:10065600440F551F2091110130911201280F391FA7
:10066600211564E036073CF02FEF33E0309312019A
:10067600209311010FC021307CEF37072CF0309307
:1006860012012093110106C021E03CEF30931201C4
:100696002093110120910F0130911001BC01621BC2
:1006A600730B9B010024369527950794369527955D
:1006B6000794322F202D9093100180930F01CA01C9
:1006C600820F931F082E892F000C881F990B000C90
:0606D600881F991F089522
:1006DC00009739F410920E0110920D0140E050E099
:1006EC0029C0AC01440F551F480F591F440F551F0B
:1006FC00440F551F20910D0130910E01280F391F09
:10070C00211564E036073CF02FEF33E030930E01F7
:10071C0020930D010FC021307CEF37072CF0309364
:10072C000E0120930D0106C021E03CEF30930E0129
:10073C0020930D0120910B0130910C01BC01621B27
:10074C00730B9B01002436952795079436952795B6
:10075C000794322F202D90930C0180930B01CA012A
:10076C00820F931F082E892F000C881F990B000CE9
:06077C00881F991F08957B
:1007820080912F0190910401891720F48F5F80934B
:100792002F0105C00E94830681E080932F01809182
:1007A2002E0190910301891720F48F5F80932E010F
:1007B20005C00E94660681E080932E0180912D0182
:1007C20090910101891720F48F5F80932D0105C05C
:1007D2000E94150681E080932D0180912C01909159
:1007E2000501891720F48F5F80932C0105C00E94B8
:1007F200430681E080932C0180912B0190910001AE
:10080200891720F48F5F80932B01089581E08093F4
:040812002B01089519
:1008160023B133B134FB882780F990E023FF11C060
:10082600892BD1F48091370181112AC081E0809310
:1008360035018093370180933301109234012D9A4C
:100846000895892B89F41092350181E08093370150
:10085600109234012D9808951092350110923701A7
:10086600109234012D98089580913401811108C0A9
:10087600109235011092370181E0809334012D9852
:020886000895D3
:100888008091190190911A01811524E09207A0F036
:100898002FEF33E030931A012093190120911701AB
:1008A8003091180121503C4FA901481B590B509316
:1008B80018014093170108952091170130911801EC
:1008C800211554E0350770F04FEF53E050931801AD
:1008D8004093170181509C4F821B930B90931A01F0
:0608E80080931901089540
:1008EE0089B191E082FB222720F930E082FF90E06F
:1008FE0080912901811112C0232B81F0489907C0E4
:10090E0080912801882351F01092280107C0809110
:10091E002801811103C081E0809328019093290161
:10092E0080912801811106C0809132018F5F8093E2
:10093E0032010895809132018150809332010895E1
:10094E0083B191E0282F217080FF90E080912701E4
:10095E00811112C0222381F01D9907C080912601BA
:10096E00882351F01092260107C080912601811133
:10097E0003C081E080932601909327018091260188
:10098E00811106C0809132018F5F809332010895EC
:0C099E0080913101815080933101089557
:1009AA001F920F920FB60F9211242F933F934F93DA
:1009BA005F936F937F938F939F93AF93BF93EF93BD
:1009CA00FF938091C60080930601809106010E94E0
:1009DA005E0681E080933001FF91EF91BF91AF9164
:1009EA009F918F917F916F915F914F913F912F913D
:0A09FA000F900FBE0F901F9018958C
:100A040080913801882319F0813071F019C081E098
:100A1400809338010E949C0680930701809309010A
:100A240087E00E9406060895109238010E949C06F1
:100A34008093080180930A0186E00E9406060895C7
:100A44001092380186E00E9406060E949C0680935C
:040A540007010895F9
:100A58001F920F920FB60F9211242F933F934F932B
:100A68005F936F937F938F939F93AF93BF93EF930E
:100A7800FF9388E386BD0E94C103FF91EF91BF9168
:100A8800AF919F918F917F916F915F914F913F911E
:0C0A98002F910F900FBE0F901F9018952B
:100AA4001F920F920FB60F9211242F933F934F93DF
:100AB4005F936F937F938F939F93AF93BF93EF93C2
:100AC400FF930E940205FF91EF91BF91AF919F9117
:100AD4008F917F916F915F914F913F912F910F90E3
:080AE4000FBE0F901F90189542
:100AEC001F920F920FB60F9211242F933F934F9397
:100AFC005F936F937F938F939F93AF93BF93EF937A
:100B0C00FF930E947704FF91EF91BF91AF919F915A
:100B1C008F917F916F915F914F913F912F910F909A
:080B2C000FBE0F901F901895F9
:100B34001F920F920FB60F9211242F933F934F934E
:100B44005F936F937F938F939F93AF93BF93EF9331
:100B5400FF930E94A704FF91EF91BF91AF919F91E2
:100B64008F917F916F915F914F913F912F910F9052
:080B74000FBE0F901F901895B1
:100B7C0085B78F7E85BF8AE78AB91BB886E084B9B2
:100B8C0088E185B980E287B98FE188B982EA8093E0
:100B9C00800080E190E00E94230684E00E949F0682
:0E0BAC000E944D060E9456060E9439060895CA
:100BBA0080913501882339F080912A018F5F8093D3
:100BCA002A011092350180912A01823038F081E0A1
:0E0BDA00809336010E942E0610922A01089583
:100BE80082E08093040183E08093030184E680938C
:100BF800010182E3809302018AE0809305018093DA
:040C0800000108954A
:100C0C00ECE7F0E09081907F908390818F70982B2F
:0E0C1C009083EAE7F0E0808180648083089591
:100C2A008091250190910201891720F48F5F8093AA
:0C0C3A002501089581E0809325010895B4
:100C46009093C5008093C40088E98093C10086E034
:060C56008093C200089526
:100C5C000E94970680E090E00E947E0680E090E083
:060C6C000E9479060895C4
:100C720082E08093690081E08DBB8093680080935D
:040C82006B00089566
:100C8600809115019091160101969093160180931B
:040C960015010895A7
:100C9A0080E680937C008CE880937A0010927B0037
:020CAA000895AB
:100CAC0082E085BD88E386BD81E080936E00089567
:100CBC008093C600E0ECF0E0808185FFFDCF0895C5
:0E0CCC0080913601811102C00E948C000895B3
:0C0CDA000E94BE0578940E94F405089565
:0C0CE600EE0FFF1F0590F491E02D099423
:0A0CF20090938B0080938A00089510
:0A0CFC00909389008093880008950A
:0A0D06000E940B040E94DD05089511
:0A0D10005D9A5E985B9A5C98089566
:0A0D1A005D9A5E985B985C9A08955C
:0A0D24005D985E9A5B9A5C98089552
:0A0D2E005D985E985B985C9808954C
:060D38008091790008958E
:060D3E008093810008957E
:060D44000E946D06FFCFC6
:040D4A000C94000005
:010D4E0001A3
:010D4F0001A2
:010D500001A1
:010D510001A0
:010D5200019F
:010D53000A95
:00000001FF
