:100000000C9446000C94150C0C94150C0C94150CC7
:100010000C94150C0C94150C0C94150C0C94150CDC
:100020000C94150C0C94150C0C94150C0C94150CCC
:100030000C94150C0C94150C0C94150C0C94150CBC
:100040000C9425090C94150C0C94CE080C94150CEA
:100050000C94150C0C9470090C94150C0C94150C44
:100060000C94150C0C94150C0100041E80041E0445
:100070002A00182E042A044C80044C044D00183A1F
:10008000044D045A80045A045B00183B11241FBE1F
:10009000CFEFD8E0DEBFCDBFE8E6F0E040E017C02C
:1000A000B591A59135912591059107FD0CC09591CC
:1000B0008591EF01F92FE82F05900D92A217B30754
:1000C000D9F7FE0104C01D92A217B307E1F7EC387F
:1000D000F40731F70E940F0C0C946E00F894FFCFD8
:0400E000256409008A
:1000E4002F923F924F926F927F928F929F92AF92F4
:1000F400BF92CF92DF92EF92FF920F931F93CF9311
:10010400DF93CDB7DEB762970FB6F894DEBF0FBEAC
:10011400CDBF6C013A01862E7901FC01108617824D
:10012400848181FFE7C19E012F5F3F4F3D872C876C
:10013400C901A0E8888B998BAA8B9FE3992EF301C0
:10014400849187FC8081882309F4D0C1482D9301D0
:100154002F5F3F4F4F4F853219F03901842E0AC06B
:10016400F901849147FD808192E0690E711C811C24
:10017400853229F4B60190E00E94F507E0CFB12C56
:1001840000E010E01032A0F48B3269F030F48032D9
:1001940059F0833269F410612CC08D3239F0803308
:1001A40039F4116026C01260146023C0186021C0A5
:1001B40017FD29C090ED980F9A3078F416FF06C009
:1001C400AAE0BA9E900D1124B92E13C0EAE00E9F46
:1001D400900D1124092F10620CC08E3221F416FDEB
:1001E40085C1106406C08C3611F4106802C08836CC
:1001F40051F4F301849187FC8081FFEF6F1A7F0A29
:100204008F0A8111BFCF982F9F7D9554933028F486
:1002140024E0E20EF11C99820FC0833631F083375B
:1002240091F0833509F063C027C0F7018081898389
:1002340097012E5F3F4F7901288839884A88AA247C
:10024400A394B12C17C0A7014D5F5F4F5F874E8702
:10025400F70120803180428016FF03C04B2D50E00F
:1002640002C04FEF5FEF842DB1010E94360A5C019A
:10027400EE84FF841F7718C097012D5F3F4F3F879F
:100284002E87F70120803180428016FF03C04B2D5A
:1002940050E002C04FEF5FEF842DB1010E94360A97
:1002A4005C011068EE84FF8413FD1DC0802F90E074
:1002B400A816B906C0F4B60180E290E00E94F507E2
:1002C4000150F4CFF101849147FC8081FFEF2F1A94
:1002D4003F0A4F0AB60190E00E94F5070111015050
:1002E40021E0A21AB108A114B10461F7F5C0843663
:1002F40011F0893671F5F70117FF08C0608171812B
:100304008281938197012C5F3F4F09C06081718185
:10031400072E000C880B990B97012E5F3F4F790134
:100324001F76312E97FF0AC0909580957095619540
:100334007F4F8F4F9F4F312F3068332E2AE030E0AC
:10034400AE014F5F5F4F0E94EA05482E4C85441A68
:100354004AC0853729F41F7EA12E2AE030E025C04B
:10036400512F597FA52E8F36C1F018F4883579F0B6
:10037400BDC0803719F0883721F0B8C0852F80615F
:10038400A82EA4FE0DC09A2D9460A92E09C014FFB6
:100394000AC0A52FA660AA2E06C028E030E005C03A
:1003A40020E130E002C020E132E0F701A7FE08C0FE
:1003B4006081718182819381A7014C5F5F4F07C087
:1003C4006081718180E090E0A7014E5F5F4F7A0108
:1003D400AE014F5F5F4F0E94EA05482E5C85451AC7
:1003E4008A2D8F77382E36FE0DC0932D9E7FA92E31
:1003F4004B1458F434FE0BC032FC09C0A32DAE7E5E
:10040400AA2E05C0142DA32C03C0142D01C01B2D2E
:10041400A4FE0EC0FE01E40DF11D8081803321F4A1
:10042400EA2DE97EAE2E08C0A2FE05C01E5F04C000
:100434008A2D867809F01F5FA3FC11C0A0FE06C0B8
:10044400101788F4040DB02EB11A0EC0101760F402
:10045400B60180E290E00E94F5071F5FF7CF101706
:1004640018F4011B02C0B42C00E0A4FE10C0B601B5
:1004740080E390E00E94F507A2FE17C0A1FC03C030
:1004840088E790E002C088E590E0B6010CC08A2DB0
:10049400867859F0A1FE02C08BE201C080E2A7FC7D
:1004A4008DE2B60190E00E94F5074B1438F4B601D2
:1004B40080E390E00E94F507BA94F7CF4A94E1E014
:1004C400F0E0EC0FFD1FE40DF11D8081B60190E01A
:1004D4000E94F5074110F2CF002309F430CEB60193
:1004E40080E290E00E94F5070150F6CFF601878183
:1004F400908502C08FEF9FEF62960FB6F894DEBF2F
:100504000FBECDBFDF91CF911F910F91FF90EF9060
:10051400DF90CF90BF90AF909F908F907F906F901F
:080524004F903F902F900895C5
:10052C005F926F927F928F929F92AF92BF92CF9277
:10053C00DF92EF92FF920F931F93CF93DF938091F3
:10054C005804882309F498C00F2EFBE0CF2EF1E05D
:10055C00DF2EF02D0F2EF3E6AF2EF3E0BF2EF02D95
:10056C000F2EF0EE6F2EF0E07F2EF0E08F2EF02DA0
:10057C000F2EF6E0EF2EF1E0FF2EF02D5E2C9F2CCF
:10058C0026C08881998122969F938F938F927F9218
:10059C006F92FF92EF920E94B809852D992D0E94BF
:1005AC00350B0F5F1F4F8DB79EB707960FB6F8949C
:1005BC009EBF0FBE8DBF0330110519F78AE00E9454
:1005CC00990B96E0C90ED11CAC14BD0421F0E601C8
:1005DC0000E010E0D6CF109258048091570481119E
:1005EC0028C04EC08881998122969F938F938F92B9
:1005FC007F926F92FF92EF920E94B809852D992DF0
:10060C000E94350B015011098DB79EB707960FB696
:10061C00F8949EBF0FBE8DBF0115110519F78AE026
:10062C000E94990B96E0C90ED11CCA14DB04E9F4A4
:10063C0020C00F2EF9E6CF2EF3E0DF2EF02D0F2E7B
:10064C00FDE1AF2EF4E0BF2EF02D0F2EF0EE6F2E4D
:10065C00F0E07F2EF0E08F2EF02D0F2EF6E0EF2E37
:10066C00F1E0FF2EF02D5E2C9F2CE60103E010E054
:10067C00B9CF1092570404C0809157048111D9CF7F
:10068C00DF91CF911F910F91FF90EF90DF90CF9062
:10069C00BF90AF909F908F907F906F905F900895D8
:1006AC00EF92FF920F931F93CF93DF93809153049C
:1006BC00882309F46BC080915404882369F18091DC
:1006CC004A04811131C0C0913204D09133047E01AF
:1006DC00EE0CFF1C87010C0F1D1F000F111F07597B
:1006EC001C4F80913A0490913B04F80191838083D4
:1006FC000E94F406F801938382830E944204E8016D
:10070C009D838C83C1E0C0935004C09357040E9416
:10071C009602C0934A0408C080914A04882321F0B1
:10072C0010924A041092500480915604882329F1A7
:10073C00C0913204D09133048E01000F111FF801C7
:10074C00EC0FFD1FEE0FFF1FE759FC4F80913A0491
:10075C0090913B04918380830E94F406C00FD11FBB
:10076C00CC0FDD1FC759DC4F9B838A8381E08093BC
:10077C005004109253048093510480913204909150
:10078C00330401969093330480933204DF91CF911C
:0A079C001F910F91FF90EF90089558
:1007A60010C00E94C40B58F00E94BD0B40F029F403
:1007B6005F3F29F00C94DE0B51110C94CC0B0C947A
:1007C600120C0E94DB0968F39923B1F3552391F3C8
:1007D600951B550BBB27AA2762177307840738F0AA
:1007E6009F5F5F4F220F331F441FAA1FA9F335D007
:1007F6000E2E3AF0E0E832D091505040E695001CBB
:10080600CAF72BD0FE2F29D0660F771F881FBB1F74
:10081600261737074807AB07B0E809F0BB0B802D52
:10082600BF01FF2793585F4F3AF09E3F510578F07E
:100836000C94DE0B0C94CC0B5F3FE4F3983ED4F3A0
:10084600869577956795B795F7959F5FC9F7880F52
:10085600911D9695879597F90895E1E0660F771FA4
:10086600881FBB1F621773078407BA0720F0621B35
:0E087600730B840BBA0BEE1F88F7E095089504
:100884004F925F926F927F928F929F92AF92BF929C
:10089400CF92DF92EF92FF9280902E0490902F04DB
:1008A400A0903004B090310440902A0450902B045E
:1008B40060902C0470902D04A3019201C501B40131
:1008C4000E94AF0B6B017C0120E030E040E85FE365
:1008D4000E94FD0B882354F020E030E040E85FEBF9
:1008E400C701B6010E94020C18160CF5A30192016F
:1008F400C501B4010E94B00BA70196010E94070C28
:1009040020E030E04CE752E40E940B0C0E94B60B4E
:1009140077232CF070933504609334040CC07195E4
:1009240061957109709335046093340404C0109286
:100934003504109234048091340490913504FF906E
:10094400EF90DF90CF90BF90AF909F908F907F906B
:080954006F905F904F90089531
:10095C0080916303853620F4909168039F3B30F4BB
:10096C008F3B38F080916803853618F40E94FB08A1
:10097C00089580916403853620F080916703853655
:10098C0048F580914004909141040E94A20628E70A
:10099C0030E0281B390B30933F0420933E048858D9
:1009AC009F4F90933D0480933C040E94E40B0E9463
:1009BC006C0880913E0490913F0490938900809341
:1009CC00880080913C0490913D0490938B0080931F
:1009DC008A00089580914004909141040E94A206DF
:1009EC002CE830E0281B390B30933F0420933E0455
:1009FC0084579F4F90933D0480933C040E94E40BDA
:100A0C000E946C0880913E0490913F049093890061
:100A1C008093880080913C0490913D0490938B00CE
:060A2C0080938A0008958A
:100A32000FC00E94BD0B38F00E94C40B20F095231A
:100A420011F00C94DE0B0C94120C11240C94CC0BB0
:100A52000E94DB0970F3959FC1F3950F50E0551F7B
:100A6200629FF001729FBB27F00DB11D639FAA2701
:100A7200F00DB11DAA1F649F6627B00DA11D661F50
:100A8200829F2227B00DA11D621F739FB00DA11D71
:100A9200621F839FA00D611D221F749F3327A00D2B
:100AA200611D231F849F600D211D822F762F6A2FC7
:100AB20011249F5750409AF0F1F088234AF0EE0F2C
:100AC200FF1FBB1F661F771F881F91505040A9F759
:100AD2009E3F510580F00C94DE0B0C94CC0B5F3FD3
:100AE200E4F3983ED4F3869577956795B795F79595
:100AF200E7959F5FC1F7FE2B880F911D969587950D
:040B020097F90895C2
:100B060011C00E94BD0B38F00E94C40B20F039F4CE
:100B16009F3F19F426F40C94120C0EF4E095E7FBB3
:100B26000C94DE0BE92F0E94DB0958F3BA17620713
:100B360073078407950720F079F4A6F50C94CB0B80
:100B46000EF4E0950B2EBA2FA02D0B01B9019001E2
:100B56000C01CA01A0011124FF27591B99F0593F26
:100B660050F4503E68F11A16F040A22F232F342F6E
:100B76004427585FF3CF469537952795A795F040BC
:100B86005395C9F77EF41F16BA0B620B730B840BD1
:100B9600BAF09150A1F0FF0FBB1F661F771F881F89
:100BA600C2F70EC0BA0F621F731F841F48F48795E1
:100BB60077956795B795F7959E3F08F0B0CF9395D3
:0E0BC600880F08F09927EE0F979587950895F0
:100BD400FA01AA27283051F1203181F1E8946F936A
:100BE4006E7F6E5F7F4F8F4F9F4FAF4FB1E03ED010
:100BF400B4E03CD0670F781F891F9A1FA11D680FAE
:100C0400791F8A1F911DA11D6A0F711D811D911DE0
:100C1400A11D20D009F468943F912AE0269F112455
:100C24003019305D3193DEF6CF010895462F4770B9
:100C3400405D4193B3E00FD0C9F7F6CF462F4F7014
:100C4400405D4A3318F0495D31FD4052419302D072
:100C5400A9F7EACFB4E0A695979587957795679518
:100C6400BA95C9F700976105710508959B01AC0118
:100C74000A2E06945795479537952795BA95C9F73F
:0C0C8400620F731F841F951FA01D0895B0
:100C900080914C04823011F128F4882349F081308E
:100CA00091F046C0843081F120F18530B9F140C027
:100CB00081E080934C04809179008093000181E071
:100CC0000E94440B089582E080934C048091790047
:100CD0008093010180E00E94440B089583E080939B
:100CE0004C04809179008093020187E00E94440BBC
:100CF000089584E080934C048091790080930301EF
:100D000086E00E94440B089510924C048091790073
:100D10008093040182E00E94440B089510924C04D9
:100D2000809179008093040182E00E94440B089531
:100D300010924C0482E00E94440B809179008093D1
:040D40000001089511
:100D4400009739F4109239041092380440E050E0CE
:100D54002CC0AC01440F551F9A01220F331F220FE0
:100D6400331F220F331F420F531F20913804309139
:100D74003904280F391F211564E036073CF02FEFA2
:100D840033E030933904209338040FC021306CEFE2
:100D940036072CF0309339042093380406C021E040
:100DA4003CEF309339042093380420913604309179
:100DB4003704BC01621B730BE8E2E69F9001E79FD6
:100DC400300D11249093370480933604CA01820FA6
:100DD400931F082E892F000C881F990B000C881F65
:040DE400991F0895B6
:100DE800CF92DF92EF92FF9260914F0470E080E023
:100DF80090E00E947E072BE33FED4FE45FE30E9403
:100E08000B0C6B017C0160932E0470932F0480936C
:100E180030049093310460914E0470E080E090E0DB
:100E28000E947E072BE33FED4FE45FE30E940B0C2B
:100E38009B01AC0160932A0470932B0480932C04CB
:100E480090932D0410924F0410924E04C701B601DE
:100E58000E94B00B20E030E040E05FE30E940B0C02
:100E68000E94B60BCB01FF90EF90DF90CF900895D2
:100E780080914904811104C081E08093490404C031
:100E88000E94F80B1092490480914804823020F4A3
:100E98008F5F8093480404C00E94030B109248049B
:100EA80080914704833620F48F5F8093470404C001
:100EB8000E949B0A1092470480914604893020F4CE
:100EC8008F5F8093460404C00E94F00A1092460483
:100ED80080914504893020F48F5F8093450404C0D5
:100EE8000E94A80B109245048AE08A95F1F70895AC
:100EF800E89409C097FB3EF49095809570956195AC
:100F08007F4F8F4F9F4F9923A9F0F92F96E9BB2761
:100F18009395F695879577956795B795F111F8CFDD
:100F2800FAF4BB0F11F460FF1BC06F5F7F4F8F4F48
:100F38009F4F16C0882311F096E911C0772321F03E
:100F48009EE8872F762F05C0662371F096E8862FD6
:100F580070E060E02AF09A95660F771F881FDAF72D
:0A0F6800880F9695879597F9089574
:100F720023B1217080E190E000000197E9F789B187
:100F82008078222389F081111AC080914B0481114B
:100F92002AC081E08093550480934B0480935304CC
:100FA200109254042D9A0895811111C01092550483
:100FB20081E080934B04109254042D98089510926E
:100FC200550410924B04109254042D980895809168
:100FD2005404811108C01092550410924B0481E010
:080FE200809354042D9808953A
:100FEA000F931F93CF93DF93FB01248121FD03C04D
:100FFA008FEF9FEF2CC022FF16C0478150852581B5
:10100A0036814217530744F4A081B1819D012F5FB5
:10101A003F4F318320838C93278130852F5F3F4F49
:10102A003087278314C08B01EC01FB010184F28510
:10103A00E02D0995892BE1F6D80117968D919C919F
:10104A001897019618969C938E931797CE01DF9165
:08105A00CF911F910F91089541
:101062002D9A0E9448060E94A10B2D982FEF84E32F
:101072009CE0215080409040E1F700C000002D9A92
:101082002FEF84E39CE0215080409040E1F700C0C4
:1010920000002D982FEF84E39CE021508040904087
:1010A200E1F700C000002D9A2FEF84E39CE021506D
:1010B20080409040E1F700C000002D982FEF83EDB3
:1010C20090E3215080409040E1F700C0000081E0B1
:0610D20080935204089512
:1010D80080913E0490913F04811524E09207A0F08E
:1010E8002FEF33E030933F0420933E0420913C04DB
:1010F80030913D0421503C4FA901481B590B509396
:101108003D0440933C04089520913C0430913D04F3
:10111800211554E0350770F04FEF53E050933D042C
:1011280040933C0481509C4F821B930B90933F0447
:0611380080933E040895BF
:10113E000E94E30988F09F5798F0B92F9927B7516D
:10114E00B0F0E1F0660F771F881F991F1AF0BA955D
:10115E00C9F714C0B13091F00E94CB0BB1E00895E5
:10116E000C94CB0B672F782F8827B85F39F0B93FD7
:10117E00CCF3869577956795B395D9F73EF4909510
:0E118E008095709561957F4F8F4F9F4F08950C
:10119C001F920F920FB60F9211242F933F934F93E0
:1011AC005F936F937F938F939F93AF93BF93EF93C3
:1011BC00FF938091C60080931D0480911D040E94B2
:1011CC00990B81E080934D04FF91EF91BF91AF910A
:1011DC009F918F917F916F915F914F913F912F9143
:0A11EC000F900FBE0F901F90189592
:1011F600809164038F3B88F0809165038F3B68F094
:101206000E94E90B80E590E0909389008093880026
:1012160090938B0080938A000895809166038F3B9C
:1012260080F0809167038F3B60F00E94EE0B80E5B3
:1012360090E0909389008093880090938B00809330
:041246008A0008957D
:10124A001F920F920FB60F9211242F933F934F9331
:10125A005F936F937F938F939F93AF93BF93EF9314
:10126A00FF9388E386BD0E943C07FF91EF91BF91EF
:10127A00AF919F918F917F916F915F914F913F9124
:0C128A002F910F900FBE0F901F90189531
:10129600CF93DF93A3E6B3E0EEE1F4E0CAE2D4E055
:1012A60080E090E06D9141915191649F9001659F1E
:1012B600300D1124820F931FEC17FD0799F766E096
:1012C60070E00E94C80A7195619571097093410496
:0A12D60060934004DF91CF9108956A
:1012E0001F920F920FB60F9211242F933F934F939B
:1012F0005F936F937F938F939F93AF93BF93EF937E
:10130000FF930E944806FF91EF91BF91AF919F918B
:101310008F917F916F915F914F913F912F910F909E
:081320000FBE0F901F901895FD
:10132800990F0008550FAA0BE0E8FEEF16161706EE
:10133800E807F907C0F012161306E407F50798F056
:10134800621B730B840B950B39F40A2661F0232B6F
:10135800242B252B21F408950A2609F4A140A695EB
:081368008FEF811D811D089526
:10137000AFE0B0E0EEEBF9E00C94280A0E891F898B
:1013800086E08D831A8309838FEF9FE79F838E8387
:101390009E01255E3F4F488D598D6A8DCE01019685
:1013A0000E947200E885F985E00FF11F10822F96E8
:0613B000E4E00C945F0A6A
:1013B60057FD9058440F551F59F05F3F71F0479500
:1013C600880F97FB991F61F09F3F79F087950895E5
:1013D600121613061406551FF2CF4695F1DF08C004
:1013E600161617061806991FF1CF86957105610521
:0413F60008940895BA
:1013FA0085B78F7E85BF8AE78AB980E88BB986E28E
:10140A0084B981E085B917B88FE088B982EA8093F8
:10141A00800080E190E00E947B0B84E08093810051
:0A142A000E946F0B0E94910B0895C1
:101434002F923F924F925F926F927F928F929F92E0
:10144400AF92BF92CF92DF92EF92FF920F931F93CE
:10145400CF93DF93CDB7DEB7CA1BDB0B0FB6F8947F
:08146400DEBF0FBECDBF0994ED
:10146C00CF92DF92EF926B01E82EA82FCB014115A2
:10147C00510531F48C199D09EF90DF90CF900895B0
:10148C00FC012491A7FD20812223A1F30196A11D2B
:06149C0041505109ECCFA4
:1014A2002A88398848885F846E847D848C849B84F2
:1014B200AA84B984C884DF80EE80FD800C811B8100
:1014C200AA81B981CE0FD11D0FB6F894DEBF0FBE2F
:0614D200CDBFED010895FD
:1014D800CF93DF930E94250BCBE0D1E099838883DB
:1014E8000E94620B9B838A830E94530B9D838C838B
:1014F80081E0809358040E949602DF91CF9108956D
:1015080080915504882339F0809144048F5F80933B
:1015180044041092550480914404823038F081E0EC
:0E152800809356040E94860B1092440408958E
:1015360080914304873C20F48F5F8093430402C06C
:101546001092430480914204813320F48F5F80938C
:0E155600420408950E946C0A10924204089507
:101564002091590490915A04A0E0B1E0E3E6F3E03D
:1015740048E653E08D91821708F42083981708F405
:0C15840090833196E417F507A9F708954D
:1015900097FB072E16F4009407D077FD09D00E9420
:1015A000DC0A07FC05D03EF4909581959F4F089585
:0815B000709561957F4F0895CD
:1015B800AA1BBB1B51E107C0AA1FBB1FA617B70771
:1015C80010F0A61BB70B881F991F5A95A9F780958D
:0815D8009095BC01CD010895BE
:1015E00080915004882329F010923B0410923A0411
:1015F000089580913A0490913B04019690933B04A6
:0616000080933A040895F6
:1016060080915204882361F080915604811108C0AC
:101616000E94B20A0E944B090E94AE040E94FB0877
:02162600089525
:10162800092E0394000C11F4882352F0BB0F40F4E8
:10163800BF2B11F460FF04C06F5F7F4F8F4F9F4F28
:02164800089503
:10164A000E94F406BC01990F880B990B0E947E0731
:10165A009B01AC010E94B00B0E94B60BCB0108950E
:10166A00CF93DF93EC018881882331F021960E9481
:0E167A00990B89918111FBCFDF91CF910895DB
:10168800ECE7F0E09081907F908390818F70982BA9
:0E1698009083EAE7F0E080818064808308950B
:1016A6000E94250BBC0180E090E00E947C079B0114
:0E16B600AC010E94B00B0E949F08CB0108956A
:1016C40020913E0430913F0480913C0490913D046C
:0A16D400820F931F969587950895E5
:1016DE0080E680937C008CE880937A0010927B00E9
:0816EE008FE380937E00089554
:1016F6009093C5008093C40088E98093C10086E07A
:061706008093C20008956B
:10170C000E94F30B109289001092880010928B00AB
:06171C0010928A000895FE
:1017220082E085BD88E386BD81E080936E000895E6
:101732008093C600E0ECF0E0808185FFFDCF089544
:0E17420084E68093590488EC80935A0408953D
:0E17500080915104811102C00E945603089539
:0E175E005058BB27AA270E9483050C94140B39
:0E176C000E949F086894B1110C94CC0B089554
:0E177A0000240A94161617061806090608958C
:0E17880000240A94121613061406050608958E
:0E179600E894BB2766277727CB0197F90895C3
:0C17A4000E94FD0978940E94310808950D
:0C17B0008091520481110E94B907089535
:0C17BC0097F99F6780E870E060E00895F6
:0A17C8005D9A5E985B9A5C980895A4
:0A17D2005D9A5E985B985C9A08959A
:0A17DC005D985E9A5B9A5C98089590
:0A17E6005D985E985B985C9808958A
:0A17F0000E94D80B0E94840A08959D
:0A17FA000E94940908F481E00895AC
:0A1804000E94940908F48FEF089584
:08180E000E94D3030C94140B9B
:081816000E9419050C94140B4B
:06181E000E94D20BFFCF77
:061824009FEF80EC089527
:04182A000C9400001A
:0C182E00FDFFFEFFFFFF010002000300B1
:01183A000AA3
:01183B00FFAD
:00000001FF
